{
    "contractName": "Admin",
    "abi": [
        {
            "inputs": [],
            "stateMutability": "nonpayable",
            "type": "constructor"
        },
        {
            "anonymous": false,
            "inputs": [
                {
                    "indexed": true,
                    "internalType": "address",
                    "name": "admin",
                    "type": "address"
                }
            ],
            "name": "AdminRemoved",
            "type": "event"
        },
        {
            "anonymous": false,
            "inputs": [
                {
                    "indexed": true,
                    "internalType": "address",
                    "name": "admin",
                    "type": "address"
                }
            ],
            "name": "NewAdmin",
            "type": "event"
        },
        {
            "anonymous": false,
            "inputs": [
                {
                    "indexed": true,
                    "internalType": "address",
                    "name": "previousOwner",
                    "type": "address"
                },
                {
                    "indexed": true,
                    "internalType": "address",
                    "name": "newOwner",
                    "type": "address"
                }
            ],
            "name": "OwnershipTransferred",
            "type": "event"
        },
        {
            "inputs": [
                {
                    "internalType": "address",
                    "name": "",
                    "type": "address"
                }
            ],
            "name": "admin",
            "outputs": [
                {
                    "internalType": "bool",
                    "name": "",
                    "type": "bool"
                }
            ],
            "stateMutability": "view",
            "type": "function"
        },
        {
            "inputs": [
                {
                    "internalType": "address payable",
                    "name": "_newadmin",
                    "type": "address"
                }
            ],
            "name": "makeNewAdmin",
            "outputs": [],
            "stateMutability": "nonpayable",
            "type": "function"
        },
        {
            "inputs": [
                {
                    "internalType": "address payable",
                    "name": "_oldadmin",
                    "type": "address"
                }
            ],
            "name": "makeRemoveAdmin",
            "outputs": [],
            "stateMutability": "nonpayable",
            "type": "function"
        },
        {
            "inputs": [],
            "name": "owner",
            "outputs": [
                {
                    "internalType": "address payable",
                    "name": "",
                    "type": "address"
                }
            ],
            "stateMutability": "view",
            "type": "function"
        },
        {
            "inputs": [
                {
                    "internalType": "address payable",
                    "name": "newOwner",
                    "type": "address"
                }
            ],
            "name": "transferOwnership",
            "outputs": [],
            "stateMutability": "nonpayable",
            "type": "function"
        }
    ],
    "bytecode": "608060405234801561001057600080fd5b50600080546001600160a01b0319163390811782558152600160208190526040909120805460ff191690911790556102f58061004d6000396000f3fe608060405234801561001057600080fd5b50600436106100575760003560e01c806363a846f81461005c57806369ed1e0a1461009457806370a0966b146100a95780638da5cb5b146100bc578063f2fde38b146100e7575b600080fd5b61007f61006a366004610283565b60016020526000908152604090205460ff1681565b60405190151581526020015b60405180910390f35b6100a76100a2366004610283565b6100fa565b005b6100a76100b7366004610283565b61017f565b6000546100cf906001600160a01b031681565b6040516001600160a01b03909116815260200161008b565b6100a76100f5366004610283565b6101fe565b6000546001600160a01b0316331461011157600080fd5b6001600160a01b03811661012457600080fd5b6040516001600160a01b038216907f71614071b88dee5e0b2ae578a9dd7b2ebbe9ae832ba419dc0242cd065a290b6c90600090a26001600160a01b03166000908152600160208190526040909120805460ff19169091179055565b6000546001600160a01b0316331461019657600080fd5b6001600160a01b0381166101a957600080fd5b6040516001600160a01b038216907fa3b62bc36326052d97ea62d63c3d60308ed4c3ea8ac079dd8499f1e9c4f80c0f90600090a26001600160a01b03166000908152600160205260409020805460ff19169055565b6000546001600160a01b0316331461021557600080fd5b6001600160a01b03811661022857600080fd5b600080546040516001600160a01b03808516939216917f8be0079c531659141344cd1fd0a4f28419497f9722a3daafe3b4186f6b6457e091a3600080546001600160a01b0319166001600160a01b0392909216919091179055565b60006020828403121561029557600080fd5b81356102a0816102a7565b9392505050565b6001600160a01b03811681146102bc57600080fd5b5056fea2646970667358221220f633dae080afbfdf732a7b31761dd0d912bece2be3a82bbb36dce050fbb327d264736f6c63430008070033",
    "sourcePath": "c:/Users/STC/Documents/GitHub/Crypto-Soccer-Testnet/contracts/Market 2.0/Inventario.sol",
    "compiler": {
        "name": "solc",
        "version": "0.8.7+commit.e28d00a7"
    },
    "functionHashes": {
        "admin(address)": "63a846f8",
        "makeNewAdmin(address)": "69ed1e0a",
        "makeRemoveAdmin(address)": "70a0966b",
        "owner()": "8da5cb5b",
        "transferOwnership(address)": "f2fde38b"
    },
    "gasEstimates": {
        "creation": {
            "codeDepositCost": "151400",
            "executionCost": "48733",
            "totalCost": "200133"
        },
        "external": {
            "admin(address)": "2492",
            "makeNewAdmin(address)": "27958",
            "makeRemoveAdmin(address)": "27962",
            "owner()": "2381",
            "transferOwnership(address)": "30460"
        }
    }
}