{
    "contractName": "Inventario",
    "abi": [
        {
            "inputs": [],
            "stateMutability": "nonpayable",
            "type": "constructor"
        },
        {
            "anonymous": false,
            "inputs": [
                {
                    "indexed": true,
                    "internalType": "address",
                    "name": "admin",
                    "type": "address"
                }
            ],
            "name": "AdminRemoved",
            "type": "event"
        },
        {
            "anonymous": false,
            "inputs": [
                {
                    "indexed": true,
                    "internalType": "address",
                    "name": "admin",
                    "type": "address"
                }
            ],
            "name": "NewAdmin",
            "type": "event"
        },
        {
            "anonymous": false,
            "inputs": [
                {
                    "indexed": true,
                    "internalType": "address",
                    "name": "previousOwner",
                    "type": "address"
                },
                {
                    "indexed": true,
                    "internalType": "address",
                    "name": "newOwner",
                    "type": "address"
                }
            ],
            "name": "OwnershipTransferred",
            "type": "event"
        },
        {
            "inputs": [
                {
                    "internalType": "address",
                    "name": "_tokenERC20",
                    "type": "address"
                }
            ],
            "name": "ChangePrincipalToken",
            "outputs": [
                {
                    "internalType": "bool",
                    "name": "",
                    "type": "bool"
                }
            ],
            "stateMutability": "nonpayable",
            "type": "function"
        },
        {
            "inputs": [
                {
                    "internalType": "address",
                    "name": "_tokenERC20",
                    "type": "address"
                }
            ],
            "name": "ChangeTokenOTRO",
            "outputs": [
                {
                    "internalType": "bool",
                    "name": "",
                    "type": "bool"
                }
            ],
            "stateMutability": "nonpayable",
            "type": "function"
        },
        {
            "inputs": [
                {
                    "internalType": "uint256",
                    "name": "",
                    "type": "uint256"
                }
            ],
            "name": "FEE_CSC",
            "outputs": [
                {
                    "internalType": "uint256",
                    "name": "",
                    "type": "uint256"
                }
            ],
            "stateMutability": "view",
            "type": "function"
        },
        {
            "inputs": [
                {
                    "internalType": "uint256",
                    "name": "_item",
                    "type": "uint256"
                },
                {
                    "internalType": "address",
                    "name": "_token",
                    "type": "address"
                },
                {
                    "internalType": "uint256",
                    "name": "_price",
                    "type": "uint256"
                }
            ],
            "name": "SellItemFromMarket",
            "outputs": [],
            "stateMutability": "nonpayable",
            "type": "function"
        },
        {
            "inputs": [
                {
                    "internalType": "address",
                    "name": "_user",
                    "type": "address"
                },
                {
                    "internalType": "uint256",
                    "name": "_item",
                    "type": "uint256"
                }
            ],
            "name": "SubItemfromMarket",
            "outputs": [],
            "stateMutability": "nonpayable",
            "type": "function"
        },
        {
            "inputs": [
                {
                    "internalType": "uint256",
                    "name": "",
                    "type": "uint256"
                }
            ],
            "name": "WALLETS_FEE",
            "outputs": [
                {
                    "internalType": "address",
                    "name": "",
                    "type": "address"
                }
            ],
            "stateMutability": "view",
            "type": "function"
        },
        {
            "inputs": [
                {
                    "internalType": "string",
                    "name": "_nombre",
                    "type": "string"
                },
                {
                    "internalType": "bool",
                    "name": "_comprable",
                    "type": "bool"
                },
                {
                    "internalType": "bool",
                    "name": "_imprimible",
                    "type": "bool"
                },
                {
                    "internalType": "uint256",
                    "name": "_precio",
                    "type": "uint256"
                }
            ],
            "name": "addItem",
            "outputs": [
                {
                    "internalType": "bool",
                    "name": "",
                    "type": "bool"
                }
            ],
            "stateMutability": "nonpayable",
            "type": "function"
        },
        {
            "inputs": [
                {
                    "internalType": "address",
                    "name": "_user",
                    "type": "address"
                },
                {
                    "internalType": "uint256",
                    "name": "_item",
                    "type": "uint256"
                }
            ],
            "name": "addItemToMarket",
            "outputs": [],
            "stateMutability": "nonpayable",
            "type": "function"
        },
        {
            "inputs": [
                {
                    "internalType": "address",
                    "name": "",
                    "type": "address"
                }
            ],
            "name": "admin",
            "outputs": [
                {
                    "internalType": "bool",
                    "name": "",
                    "type": "bool"
                }
            ],
            "stateMutability": "view",
            "type": "function"
        },
        {
            "inputs": [],
            "name": "adminWallet",
            "outputs": [
                {
                    "internalType": "address",
                    "name": "",
                    "type": "address"
                }
            ],
            "stateMutability": "view",
            "type": "function"
        },
        {
            "inputs": [
                {
                    "internalType": "address",
                    "name": "",
                    "type": "address"
                },
                {
                    "internalType": "uint256",
                    "name": "",
                    "type": "uint256"
                }
            ],
            "name": "almacen",
            "outputs": [
                {
                    "internalType": "uint256",
                    "name": "",
                    "type": "uint256"
                }
            ],
            "stateMutability": "view",
            "type": "function"
        },
        {
            "inputs": [
                {
                    "internalType": "address",
                    "name": "",
                    "type": "address"
                }
            ],
            "name": "baneado",
            "outputs": [
                {
                    "internalType": "bool",
                    "name": "",
                    "type": "bool"
                }
            ],
            "stateMutability": "view",
            "type": "function"
        },
        {
            "inputs": [
                {
                    "internalType": "address",
                    "name": "_user",
                    "type": "address"
                },
                {
                    "internalType": "uint256",
                    "name": "_item",
                    "type": "uint256"
                }
            ],
            "name": "buyItemFromMarket",
            "outputs": [],
            "stateMutability": "nonpayable",
            "type": "function"
        },
        {
            "inputs": [],
            "name": "buyItems",
            "outputs": [
                {
                    "internalType": "bool",
                    "name": "",
                    "type": "bool"
                }
            ],
            "stateMutability": "view",
            "type": "function"
        },
        {
            "inputs": [
                {
                    "internalType": "uint256",
                    "name": "_item",
                    "type": "uint256"
                }
            ],
            "name": "buyItemsGame",
            "outputs": [],
            "stateMutability": "nonpayable",
            "type": "function"
        },
        {
            "inputs": [
                {
                    "internalType": "uint256",
                    "name": "",
                    "type": "uint256"
                }
            ],
            "name": "comprable",
            "outputs": [
                {
                    "internalType": "bool",
                    "name": "",
                    "type": "bool"
                }
            ],
            "stateMutability": "view",
            "type": "function"
        },
        {
            "inputs": [
                {
                    "internalType": "uint256",
                    "name": "_id",
                    "type": "uint256"
                },
                {
                    "internalType": "string",
                    "name": "_nombre",
                    "type": "string"
                },
                {
                    "internalType": "bool",
                    "name": "_comprable",
                    "type": "bool"
                },
                {
                    "internalType": "bool",
                    "name": "_imprimible",
                    "type": "bool"
                },
                {
                    "internalType": "uint256",
                    "name": "_precio",
                    "type": "uint256"
                }
            ],
            "name": "editItem",
            "outputs": [
                {
                    "internalType": "bool",
                    "name": "",
                    "type": "bool"
                }
            ],
            "stateMutability": "nonpayable",
            "type": "function"
        },
        {
            "inputs": [
                {
                    "internalType": "uint256",
                    "name": "",
                    "type": "uint256"
                }
            ],
            "name": "imprimible",
            "outputs": [
                {
                    "internalType": "bool",
                    "name": "",
                    "type": "bool"
                }
            ],
            "stateMutability": "view",
            "type": "function"
        },
        {
            "inputs": [
                {
                    "internalType": "uint256",
                    "name": "",
                    "type": "uint256"
                }
            ],
            "name": "items",
            "outputs": [
                {
                    "internalType": "string",
                    "name": "",
                    "type": "string"
                }
            ],
            "stateMutability": "view",
            "type": "function"
        },
        {
            "inputs": [
                {
                    "internalType": "address",
                    "name": "_user",
                    "type": "address"
                }
            ],
            "name": "largoInventario",
            "outputs": [
                {
                    "internalType": "uint256",
                    "name": "",
                    "type": "uint256"
                }
            ],
            "stateMutability": "view",
            "type": "function"
        },
        {
            "inputs": [],
            "name": "largoItems",
            "outputs": [
                {
                    "internalType": "uint256",
                    "name": "",
                    "type": "uint256"
                }
            ],
            "stateMutability": "view",
            "type": "function"
        },
        {
            "inputs": [
                {
                    "internalType": "address payable",
                    "name": "_newadmin",
                    "type": "address"
                }
            ],
            "name": "makeNewAdmin",
            "outputs": [],
            "stateMutability": "nonpayable",
            "type": "function"
        },
        {
            "inputs": [
                {
                    "internalType": "address payable",
                    "name": "_oldadmin",
                    "type": "address"
                }
            ],
            "name": "makeRemoveAdmin",
            "outputs": [],
            "stateMutability": "nonpayable",
            "type": "function"
        },
        {
            "inputs": [
                {
                    "internalType": "address",
                    "name": "",
                    "type": "address"
                },
                {
                    "internalType": "uint256",
                    "name": "",
                    "type": "uint256"
                }
            ],
            "name": "market",
            "outputs": [
                {
                    "internalType": "uint256",
                    "name": "",
                    "type": "uint256"
                }
            ],
            "stateMutability": "view",
            "type": "function"
        },
        {
            "inputs": [
                {
                    "internalType": "address",
                    "name": "",
                    "type": "address"
                },
                {
                    "internalType": "uint256",
                    "name": "",
                    "type": "uint256"
                }
            ],
            "name": "market_price",
            "outputs": [
                {
                    "internalType": "uint256",
                    "name": "",
                    "type": "uint256"
                }
            ],
            "stateMutability": "view",
            "type": "function"
        },
        {
            "inputs": [
                {
                    "internalType": "address",
                    "name": "",
                    "type": "address"
                },
                {
                    "internalType": "uint256",
                    "name": "",
                    "type": "uint256"
                }
            ],
            "name": "market_token",
            "outputs": [
                {
                    "internalType": "address",
                    "name": "",
                    "type": "address"
                }
            ],
            "stateMutability": "view",
            "type": "function"
        },
        {
            "inputs": [],
            "name": "migracion",
            "outputs": [
                {
                    "internalType": "bool",
                    "name": "",
                    "type": "bool"
                }
            ],
            "stateMutability": "view",
            "type": "function"
        },
        {
            "inputs": [
                {
                    "internalType": "uint256[]",
                    "name": "_inventario",
                    "type": "uint256[]"
                }
            ],
            "name": "migrar",
            "outputs": [],
            "stateMutability": "nonpayable",
            "type": "function"
        },
        {
            "inputs": [],
            "name": "owner",
            "outputs": [
                {
                    "internalType": "address payable",
                    "name": "",
                    "type": "address"
                }
            ],
            "stateMutability": "view",
            "type": "function"
        },
        {
            "inputs": [
                {
                    "internalType": "uint256",
                    "name": "",
                    "type": "uint256"
                }
            ],
            "name": "precio",
            "outputs": [
                {
                    "internalType": "uint256",
                    "name": "",
                    "type": "uint256"
                }
            ],
            "stateMutability": "view",
            "type": "function"
        },
        {
            "inputs": [],
            "name": "redimETH",
            "outputs": [
                {
                    "internalType": "uint256",
                    "name": "",
                    "type": "uint256"
                }
            ],
            "stateMutability": "nonpayable",
            "type": "function"
        },
        {
            "inputs": [],
            "name": "redimOTRO",
            "outputs": [
                {
                    "internalType": "uint256",
                    "name": "",
                    "type": "uint256"
                }
            ],
            "stateMutability": "nonpayable",
            "type": "function"
        },
        {
            "inputs": [],
            "name": "redimTokenPrincipal01",
            "outputs": [
                {
                    "internalType": "uint256",
                    "name": "",
                    "type": "uint256"
                }
            ],
            "stateMutability": "nonpayable",
            "type": "function"
        },
        {
            "inputs": [
                {
                    "internalType": "uint256",
                    "name": "_value",
                    "type": "uint256"
                }
            ],
            "name": "redimTokenPrincipal02",
            "outputs": [
                {
                    "internalType": "uint256",
                    "name": "",
                    "type": "uint256"
                }
            ],
            "stateMutability": "nonpayable",
            "type": "function"
        },
        {
            "inputs": [],
            "name": "sellItems",
            "outputs": [
                {
                    "internalType": "bool",
                    "name": "",
                    "type": "bool"
                }
            ],
            "stateMutability": "view",
            "type": "function"
        },
        {
            "inputs": [],
            "name": "token",
            "outputs": [
                {
                    "internalType": "address",
                    "name": "",
                    "type": "address"
                }
            ],
            "stateMutability": "view",
            "type": "function"
        },
        {
            "inputs": [
                {
                    "internalType": "address payable",
                    "name": "newOwner",
                    "type": "address"
                }
            ],
            "name": "transferOwnership",
            "outputs": [],
            "stateMutability": "nonpayable",
            "type": "function"
        },
        {
            "inputs": [
                {
                    "internalType": "bool",
                    "name": "_truefalse",
                    "type": "bool"
                }
            ],
            "name": "updateBuyItems",
            "outputs": [],
            "stateMutability": "nonpayable",
            "type": "function"
        },
        {
            "inputs": [
                {
                    "internalType": "address[]",
                    "name": "_wallets",
                    "type": "address[]"
                },
                {
                    "internalType": "uint256[]",
                    "name": "_valores",
                    "type": "uint256[]"
                }
            ],
            "name": "updateWalletsFee",
            "outputs": [],
            "stateMutability": "nonpayable",
            "type": "function"
        },
        {
            "inputs": [
                {
                    "internalType": "address",
                    "name": "_user",
                    "type": "address"
                }
            ],
            "name": "verInventario",
            "outputs": [
                {
                    "internalType": "uint256[]",
                    "name": "",
                    "type": "uint256[]"
                }
            ],
            "stateMutability": "view",
            "type": "function"
        },
        {
            "inputs": [],
            "name": "verItemsMarket",
            "outputs": [
                {
                    "internalType": "string[]",
                    "name": "",
                    "type": "string[]"
                },
                {
                    "internalType": "bool[]",
                    "name": "",
                    "type": "bool[]"
                },
                {
                    "internalType": "bool[]",
                    "name": "",
                    "type": "bool[]"
                },
                {
                    "internalType": "uint256[]",
                    "name": "",
                    "type": "uint256[]"
                }
            ],
            "stateMutability": "view",
            "type": "function"
        },
        {
            "inputs": [
                {
                    "internalType": "address",
                    "name": "_user",
                    "type": "address"
                }
            ],
            "name": "verMarket",
            "outputs": [
                {
                    "internalType": "uint256[]",
                    "name": "_items",
                    "type": "uint256[]"
                },
                {
                    "internalType": "uint256[]",
                    "name": "_price",
                    "type": "uint256[]"
                }
            ],
            "stateMutability": "view",
            "type": "function"
        }
    ],
    "bytecode": "6002805462ffffff19166201010117905560e0604052730c4c6519e8b6e4d9c99b09a3cda475638c930b00608090815261dead60a052724769ef6aec57efbf56c24d0a04fe619fbb614360c0526200005b906003908162000e16565b506040805160608101825268056bc75e2d6310000080825260208201819052918101919091526200009190600490600362000e80565b50600580546001600160a01b031990811673f0fb4a5acf1b1126a991ee189408b112028d7a63908117909255600680548216724769ef6aec57efbf56c24d0a04fe619fbb614317905560078054821683179055600880549091169091179055348015620000fd57600080fd5b50600080546001600160a01b031916339081178255815260016020818152604092839020805460ff191690921790915581516106208101835260146105e082018181527f74312d6272617a696c2d6c6567656e646172696f00000000000000000000000061060084015282528351808501855260178082527f74322d617267656e74696e612d6c6567656e646172696f00000000000000000082860152838501919091528451808601865260168082527f74332d616c656d616e69612d6c6567656e646172696f00000000000000000000828701528487019190915285518087018752600e8082526d74342d6a61706f6e2d657069636f60901b8288015260608601919091528651808801885260118082527074352d636f6c6f6d6269612d657069636f60781b82890152608087019190915287518089018952600f8082526e74362d6d657869636f2d657069636f60881b828a015260a08801919091528851808a018a5260108082526f74372d63726f616369612d657069636f60801b828b015260c08901919091528951808b018b52600b81526a74382d45552d657069636f60a81b818b015260e08901528951808b018b528381527074392d706f72747567616c2d657069636f60781b818b01526101008901528951808b018b52600d81526c7431302d6573702d657069636f60981b818b01526101208901528951808b018b5260138082527f7431312d617267656e74696e612d636f6d756e00000000000000000000000000828c01526101408a01919091528a51808c018c528181527f7431322d6175737472616c69612d636f6d756e00000000000000000000000000818c01526101608a01528a51808c018c52848152703a189996b132b633b4bab696b1b7b6bab760791b818c01526101808a01528a51808c018c528281526f3a189a16b13930bd34b616b1b7b6bab760811b818c01526101a08a01528a51808c018c528381526e3a189a96b1b0b7323096b1b7b6bab760891b818c01526101c08a01528a51808c018c526012808252713a189b16b1b7b637b6b134b096b1b7b6bab760711b828d01526101e08b01919091528b51808d018d528281527f7431372d636f737461526963612d636f6d756e00000000000000000000000000818d01526102008b01528b51808d018d52858152703a189c16b1b937b0ba34b096b1b7b6bab760791b818d01526102208b01528b51808d018d52858152703a189c96b232b736b0b93596b1b7b6bab760791b818d01526102408b01528b51808d018d52858152703a191816b2b733b630b73216b1b7b6bab760791b818d01526102608b01528b51808d018d52858152703a191896b3b2b936b0b73c96b1b7b6bab760791b818d01526102808b01528b51808d018d52858152703a191916b437b63630b73216b1b7b6bab760791b818d01526102a08b01528b51808d018d52858152703a191996b4b1b2b630b73216b1b7b6bab760791b818d01526102c08b01528b51808d018d528681526d3a191a16b4b930b716b1b7b6bab760911b818d01526102e08b01528b51808d018d528481526e3a191a96b4ba30b63c96b1b7b6bab760891b818d01526103008b01528b51808d018d529889527f7432362d69766f7279436f6173742d636f6d756e000000000000000000000000898c01526103208a01989098528a51808c018c528381526e3a191b96b530b830b716b1b7b6bab760891b818c01526103408a01528a51808c018c529687527f7432382d6b6f72656152657075626c69632d636f6d756e000000000000000000878b01526103608901969096528951808b018b528181526f3a191c96b6b2bc34b1b796b1b7b6bab760811b818b01526103808901528951808b018b528181526f3a199816b830b730b6b096b1b7b6bab760811b818b01526103a08901528951808b018b528481526d3a199896b832b93a96b1b7b6bab760911b818b01526103c08901528951808b018b528181526f3a199916b837b630b73216b1b7b6bab760811b818b01526103e08901528951808b018b52968752713a199996b837b93a3ab3b0b616b1b7b6bab760711b878a01526104008801969096528851808a018a528681526f3a199a16b93ab9b9b4b096b1b7b6bab760811b818a01526104208801528851808a018a52828152703a199a96b9b2b732b3b0b616b1b7b6bab760791b818a01526104408801528851808a018a528681526f3a199b16b9b2b93134b096b1b7b6bab760811b818a01526104608801528851808a018a529081526e3a199b96b9b830b4b716b1b7b6bab760891b81890152610480870152875180890189529485526f3a199c16b9bbb2b232b716b1b7b6bab760811b858801526104a086019490945286518088018852601581527f7433392d737769747a65726c616e642d636f6d756e0000000000000000000000818801526104c086015286518088018852848152703a1a1816ba3ab734b9b4b096b1b7b6bab760791b818801526104e0860152865180880188529182527f7434312d756e697465645374617465732d636f6d756e000000000000000000008287015261050085019190915285518087018752928352703a1a1916bab93ab3bab0bc96b1b7b6bab760791b83860152610520840192909252845180860186529081527f7434332d76656e657a75656c612d636f6d756e000000000000000000000000008185015261054083015283518085018552600c8082526b331896b337b936b0b1b4b7b760a11b82860152610560840191909152845180860186528181526b331916b337b936b0b1b4b7b760a11b81860152610580840152845180860186528181526b331996b337b936b0b1b4b7b760a11b818601526105a0840152845180860190955284526b331a16b337b936b0b1b4b7b760a11b928401929092526105c08101929092526200095491602f62000ec9565b50604080516105e081018252600080825260208201819052918101829052606081018290526080810182905260a0810182905260c0810182905260e08101829052610100810182905261012081019190915260016101408201819052610160820181905261018082018190526101a082018190526101c082018190526101e08201819052610200820181905261022082018190526102408201819052610260820181905261028082018190526102a082018190526102c082018190526102e08201819052610300820181905261032082018190526103408201819052610360820181905261038082018190526103a082018190526103c082018190526103e08201819052610400820181905261042082018190526104408201819052610460820181905261048082018190526104a082018190526104c082018190526104e08201819052610500820181905261052082018190526105408201819052610560820181905261058082018190526105a082018190526105c082015262000ade90600f90602f62000f29565b50604080516105c081018252600180825260208201819052918101829052606081018290526080810182905260a0810182905260c0810182905260e08101829052610100810182905261012081018290526101408101919091526000610160820181905261018082018190526101a082018190526101c082018190526101e08201819052610200820181905261022082018190526102408201819052610260820181905261028082018190526102a082018190526102c082018190526102e08201819052610300820181905261032082018190526103408201819052610360820181905261038082018190526103a082018190526103c082018190526103e08201819052610400820181905261042082018190526104408201819052610460820181905261048082018190526104a082018190526104c082018190526104e08201819052610500820181905261052082018190526105408201819052610560820181905261058082018190526105a082015262000c6090601090602e62000f29565b50604080516105e0810182526a52b7d2dcc80cd2e400000080825260208201819052918101919091526a084595161401484a000000606082018190526080820181905260a0820181905260c0820181905260e08201819052610100820181905261012082015269010f0cf064dd592000006101408201819052610160820181905261018082018190526101a082018190526101c082018190526101e08201819052610200820181905261022082018190526102408201819052610260820181905261028082018190526102a082018190526102c082018190526102e08201819052610300820181905261032082018190526103408201819052610360820181905261038082018190526103a082018190526103c082018190526103e08201819052610400820181905261042082018190526104408201819052610460820181905261048082018190526104a082018190526104c082018190526104e0820181905261050082018190526105208201819052610540820152686c6b935b8bbd400000610560820181905261058082018190526105a082018190526105c082015262000e0f90601190602f62000fd0565b506200114d565b82805482825590600052602060002090810192821562000e6e579160200282015b8281111562000e6e57825182546001600160a01b0319166001600160a01b0390911617825560209092019160019091019062000e37565b5062000e7c92915062001019565b5090565b82805482825590600052602060002090810192821562000e6e579160200282015b8281111562000e6e57825182906001600160481b031690559160200191906001019062000ea1565b82805482825590600052602060002090810192821562000f1b579160200282015b8281111562000f1b578251805162000f0a91849160209091019062001030565b509160200191906001019062000eea565b5062000e7c929150620010ad565b82805482825590600052602060002090601f0160209004810192821562000e6e5791602002820160005b8382111562000f9257835183826101000a81548160ff021916908315150217905550926020019260010160208160000104928301926001030262000f53565b801562000fc15782816101000a81549060ff021916905560010160208160000104928301926001030262000f92565b505062000e7c92915062001019565b82805482825590600052602060002090810192821562000e6e579160200282015b8281111562000e6e57825182906001600160581b031690559160200191906001019062000ff1565b5b8082111562000e7c57600081556001016200101a565b8280546200103e9062001110565b90600052602060002090601f01602090048101928262001062576000855562000e6e565b82601f106200107d57805160ff191683800117855562000e6e565b8280016001018555821562000e6e579182015b8281111562000e6e57825182559160200191906001019062001090565b8082111562000e7c576000620010c48282620010ce565b50600101620010ad565b508054620010dc9062001110565b6000825580601f10620010ed575050565b601f0160209004906000526020600020908101906200110d919062001019565b50565b600181811c908216806200112557607f821691505b602082108114156200114757634e487b7160e01b600052602260045260246000fd5b50919050565b612542806200115d6000396000f3fe608060405234801561001057600080fd5b506004361061025d5760003560e01c80638929cbc511610146578063c24a61b8116100c3578063d2beb26811610087578063d2beb26814610586578063eb5b455a14610599578063f162bbed146105a1578063f2fde38b146105b4578063f9de8c16146105c7578063fc0c546a146105da57600080fd5b8063c24a61b814610501578063c850dd9714610514578063c991c47414610527578063cc36005814610550578063cdba068c1461056357600080fd5b8063a72bce571161010a578063a72bce5714610489578063aaa272a61461049c578063bc851f25146104bc578063bfb231d2146104cf578063c0258191146104ef57600080fd5b80638929cbc51461043b5780638da5cb5b1461044357806394756aa71461045657806396ba536314610469578063989b85ab1461047c57600080fd5b80632e9928d3116101df578063556cb7d1116101a3578063556cb7d1146103ab5780636327463e146103cc57806363a846f8146103df57806369ed1e0a1461040257806370a0966b146104155780638833ac451461042857600080fd5b80632e9928d31461033f57806336b19cd71461034757806348053bc514610372578063517aa3661461038557806355019f2c1461039857600080fd5b80631c7f2bc8116102265780631c7f2bc8146102d65780631cfd9e3f146102ee578063209f2a6614610301578063238393e41461031457806326925c361461031c57600080fd5b80623fb087146102625780631140e85b14610277578063162db9291461029d57806316c38cee146102b057806317fecb4b146102c3575b600080fd5b610275610270366004611fa7565b6105ed565b005b61028a610285366004612151565b610630565b6040519081526020015b60405180910390f35b6102756102ab366004611f7b565b61075d565b6102756102be366004612183565b610af5565b6102756102d1366004611f7b565b610cc5565b6102de610d24565b604051610294949392919061230d565b61028a6102fc366004611f7b565b610f49565b61028a61030f366004612151565b610f7a565b600e5461028a565b61032f61032a3660046121bb565b610f9b565b6040519015158152602001610294565b61028a61108b565b60065461035a906001600160a01b031681565b6040516001600160a01b039091168152602001610294565b61028a610380366004612151565b6110f1565b61032f610393366004612151565b611101565b61035a6103a6366004611f7b565b611135565b6103be6103b9366004611f57565b61116d565b6040516102949291906123c0565b61035a6103da366004612151565b61123c565b61032f6103ed366004611f57565b60016020526000908152604090205460ff1681565b610275610410366004611f57565b611266565b610275610423366004611f57565b6112eb565b610275610436366004612070565b61136a565b61028a6113d2565b60005461035a906001600160a01b031681565b61028a610464366004611f7b565b61157d565b61032f610477366004611f57565b611599565b60025461032f9060ff1681565b610275610497366004611f7b565b6115d6565b6104af6104aa366004611f57565b611644565b60405161029491906123ad565b61032f6104ca366004612151565b6116b0565b6104e26104dd366004612151565b6116c0565b60405161029491906123ee565b60025461032f90610100900460ff1681565b61028a61050f366004611f7b565b61176c565b610275610522366004612151565b611788565b61028a610535366004611f57565b6001600160a01b03166000908152600a602052604090205490565b61032f61055e366004611f57565b6119bd565b61032f610571366004611f57565b60096020526000908152604090205460ff1681565b60025461032f9062010000900460ff1681565b61028a611a08565b61032f6105af3660046120e7565b611b5f565b6102756105c2366004611f57565b611c97565b6102756105d53660046120ad565b611d1c565b60055461035a906001600160a01b031681565b6000546001600160a01b0316331461060457600080fd5b8151610617906003906020850190611d4d565b50805161062b906004906020840190611db2565b505050565b600080546001600160a01b0316331461064857600080fd5b6007546040516370a0823160e01b815230600482015283916001600160a01b0316906370a082319060240160206040518083038186803b15801561068b57600080fd5b505afa15801561069f573d6000803e3d6000fd5b505050506040513d601f19601f820116820180604052508101906106c3919061216a565b10156106ce57600080fd5b60075460005460405163a9059cbb60e01b81526001600160a01b0391821660048201526024810185905291169063a9059cbb90604401602060405180830381600087803b15801561071e57600080fd5b505af1158015610732573d6000803e3d6000fd5b505050506040513d601f19601f8201168201806040525081019061075691906120ca565b5090919050565b60025462010000900460ff16158061078d57506001600160a01b03821660009081526009602052604090205460ff165b806107a757503360009081526009602052604090205460ff165b8061080557506001600160a01b0382166000908152600c6020526040812080546009929190849081106107dc576107dc6124ba565b60009182526020808320909101546001600160a01b0316835282019290925260400190205460ff165b1561080f57600080fd5b6001600160a01b0382166000908152600c60205260408120805483908110610839576108396124ba565b60009182526020822001546001600160a01b031691505b60035481101561094757600754600380546001600160a01b03909216916323b872dd91339185908110610885576108856124ba565b600091825260209091200154600480546001600160a01b0390921691869081106108b1576108b16124ba565b90600052602060002001546040518463ffffffff1660e01b81526004016108da939291906122e9565b602060405180830381600087803b1580156108f457600080fd5b505af1158015610908573d6000803e3d6000fd5b505050506040513d601f19601f8201168201806040525081019061092c91906120ca565b61093557600080fd5b8061093f81612491565b915050610850565b506001600160a01b0383163314610a2357806001600160a01b03166323b872dd3385600d6000886001600160a01b03166001600160a01b03168152602001908152602001600020868154811061099f5761099f6124ba565b90600052602060002001546040518463ffffffff1660e01b81526004016109c8939291906122e9565b602060405180830381600087803b1580156109e257600080fd5b505af11580156109f6573d6000803e3d6000fd5b505050506040513d601f19601f82011682018060405250810190610a1a91906120ca565b610a2357600080fd5b6001600160a01b0383166000908152600b60205260409020805483908110610a4d57610a4d6124ba565b600091825260208083209091018290556001600160a01b0385168252600d905260409020805483908110610a8357610a836124ba565b600091825260208083209091018290556001600160a01b0385168252600c905260409020805483908110610ab957610ab96124ba565b6000918252602080832090910180546001600160a01b0319169055338252600a8152604082208054600181018255908352912001919091555050565b60025462010000900460ff161580610b1c57503360009081526009602052604090205460ff165b15610b2657600080fd5b60005b600354811015610c2057600754600380546001600160a01b03909216916323b872dd91339185908110610b5e57610b5e6124ba565b600091825260209091200154600480546001600160a01b039092169186908110610b8a57610b8a6124ba565b90600052602060002001546040518463ffffffff1660e01b8152600401610bb3939291906122e9565b602060405180830381600087803b158015610bcd57600080fd5b505af1158015610be1573d6000803e3d6000fd5b505050506040513d601f19601f82011682018060405250810190610c0591906120ca565b610c0e57600080fd5b80610c1881612491565b915050610b29565b50336000908152600a60205260409020805484908110610c4257610c426124ba565b600091825260208083209190910182905533808352600b825260408084208054600180820183559186528486200197909755818452600d83528084208054808901825590855283852001949094558252600c81529181208054948501815581522090910180546001600160a01b0319166001600160a01b03909216919091179055565b6001600160a01b03821660009081526009602052604090205460ff1615610ceb57600080fd5b6001600160a01b0382166000908152600a60205260409020805482908110610d1557610d156124ba565b60009182526020822001555050565b606080606080600e600f6010601183805480602002602001604051908101604052809291908181526020016000905b82821015610dff578382906000526020600020018054610d7290612456565b80601f0160208091040260200160405190810160405280929190818152602001828054610d9e90612456565b8015610deb5780601f10610dc057610100808354040283529160200191610deb565b820191906000526020600020905b815481529060010190602001808311610dce57829003601f168201915b505050505081526020019060010190610d53565b50505050935082805480602002602001604051908101604052809291908181526020018280548015610e7057602002820191906000526020600020906000905b825461010083900a900460ff161515815260206001928301818104948501949093039092029101808411610e3f5790505b5050505050925081805480602002602001604051908101604052809291908181526020018280548015610ee257602002820191906000526020600020906000905b825461010083900a900460ff161515815260206001928301818104948501949093039092029101808411610eb15790505b5050505050915080805480602002602001604051908101604052809291908181526020018280548015610f3457602002820191906000526020600020905b815481526020019060010190808311610f20575b50505050509050935093509350935090919293565b600a6020528160005260406000208181548110610f6557600080fd5b90600052602060002001600091509150505481565b60048181548110610f8a57600080fd5b600091825260209091200154905081565b600080546001600160a01b03163314610fb357600080fd5b84600e8781548110610fc757610fc76124ba565b906000526020600020019080519060200190610fe4929190611ded565b5083600f8781548110610ff957610ff96124ba565b90600052602060002090602091828204019190066101000a81548160ff0219169083151502179055508260108781548110611036576110366124ba565b90600052602060002090602091828204019190066101000a81548160ff0219169083151502179055508160118781548110611073576110736124ba565b60009182526020909120015550600195945050505050565b600080546001600160a01b031633146110a357600080fd5b600047116110b057600080fd5b600080546040516001600160a01b03909116914780156108fc02929091818181858888f193505050501580156110ea573d6000803e3d6000fd5b5047905090565b60118181548110610f8a57600080fd5b600f818154811061111157600080fd5b9060005260206000209060209182820401919006915054906101000a900460ff1681565b600c602052816000526040600020818154811061115157600080fd5b6000918252602090912001546001600160a01b03169150829050565b6001600160a01b0381166000908152600b60209081526040808320600d8352928190208354825181850281018501909352808352606094859490939184918301828280156111da57602002820191906000526020600020905b8154815260200190600101908083116111c6575b505050505091508080548060200260200160405190810160405280929190818152602001828054801561122c57602002820191906000526020600020905b815481526020019060010190808311611218575b5050505050905091509150915091565b6003818154811061124c57600080fd5b6000918252602090912001546001600160a01b0316905081565b6000546001600160a01b0316331461127d57600080fd5b6001600160a01b03811661129057600080fd5b6040516001600160a01b038216907f71614071b88dee5e0b2ae578a9dd7b2ebbe9ae832ba419dc0242cd065a290b6c90600090a26001600160a01b03166000908152600160208190526040909120805460ff19169091179055565b6000546001600160a01b0316331461130257600080fd5b6001600160a01b03811661131557600080fd5b6040516001600160a01b038216907fa3b62bc36326052d97ea62d63c3d60308ed4c3ea8ac079dd8499f1e9c4f80c0f90600090a26001600160a01b03166000908152600160205260409020805460ff19169055565b60025460ff16158061138a5750336000908152600a602052604090205415155b806113a457503360009081526009602052604090205460ff165b156113ae57600080fd5b336000908152600a6020908152604090912082516113ce92840190611db2565b5050565b600080546001600160a01b031633146113ea57600080fd5b6008546040516370a0823160e01b81523060048201526000916001600160a01b0316906370a082319060240160206040518083038186803b15801561142e57600080fd5b505afa158015611442573d6000803e3d6000fd5b505050506040513d601f19601f82011682018060405250810190611466919061216a565b1161147057600080fd5b6008546040516370a0823160e01b81523060048201526000916001600160a01b0316906370a082319060240160206040518083038186803b1580156114b457600080fd5b505afa1580156114c8573d6000803e3d6000fd5b505050506040513d601f19601f820116820180604052508101906114ec919061216a565b60085460005460405163a9059cbb60e01b81526001600160a01b03918216600482015260248101849052929350169063a9059cbb906044015b602060405180830381600087803b15801561153f57600080fd5b505af1158015611553573d6000803e3d6000fd5b505050506040513d601f19601f8201168201806040525081019061157791906120ca565b50905090565b600b6020528160005260406000208181548110610f6557600080fd5b600080546001600160a01b031633146115b157600080fd5b50600880546001600160a01b0383166001600160a01b03199091161790556001919050565b3360009081526001602052604090205460ff166115f257600080fd5b6001600160a01b03821660009081526009602052604090205460ff161561161857600080fd5b6001600160a01b039091166000908152600a602090815260408220805460018101825590835291200155565b6001600160a01b0381166000908152600a60209081526040918290208054835181840281018401909452808452606093928301828280156116a457602002820191906000526020600020905b815481526020019060010190808311611690575b50505050509050919050565b6010818154811061111157600080fd5b600e81815481106116d057600080fd5b9060005260206000200160009150905080546116eb90612456565b80601f016020809104026020016040519081016040528092919081815260200182805461171790612456565b80156117645780601f1061173957610100808354040283529160200191611764565b820191906000526020600020905b81548152906001019060200180831161174757829003601f168201915b505050505081565b600d6020528160005260406000208181548110610f6557600080fd5b600254610100900460ff1615806117ae57503360009081526009602052604090205460ff165b806117e95750600f81815481106117c7576117c76124ba565b90600052602060002090602091828204019190069054906101000a900460ff16155b156117f357600080fd5b6005546001600160a01b031660005b6003548110156118f157816001600160a01b03166323b872dd336003848154811061182f5761182f6124ba565b600091825260209091200154600480546001600160a01b03909216918690811061185b5761185b6124ba565b90600052602060002001546040518463ffffffff1660e01b8152600401611884939291906122e9565b602060405180830381600087803b15801561189e57600080fd5b505af11580156118b2573d6000803e3d6000fd5b505050506040513d601f19601f820116820180604052508101906118d691906120ca565b6118df57600080fd5b806118e981612491565b915050611802565b50806001600160a01b03166323b872dd333060118681548110611916576119166124ba565b90600052602060002001546040518463ffffffff1660e01b815260040161193f939291906122e9565b602060405180830381600087803b15801561195957600080fd5b505af115801561196d573d6000803e3d6000fd5b505050506040513d601f19601f8201168201806040525081019061199191906120ca565b61199a57600080fd5b50336000908152600a602090815260408220805460018101825590835291200155565b600080546001600160a01b031633146119d557600080fd5b50600780546001600160a01b0383166001600160a01b031991821681179092556005805490911690911790556001919050565b600080546001600160a01b03163314611a2057600080fd5b6007546040516370a0823160e01b81523060048201526000916001600160a01b0316906370a082319060240160206040518083038186803b158015611a6457600080fd5b505afa158015611a78573d6000803e3d6000fd5b505050506040513d601f19601f82011682018060405250810190611a9c919061216a565b11611aa657600080fd5b6007546040516370a0823160e01b81523060048201526000916001600160a01b0316906370a082319060240160206040518083038186803b158015611aea57600080fd5b505afa158015611afe573d6000803e3d6000fd5b505050506040513d601f19601f82011682018060405250810190611b22919061216a565b60075460005460405163a9059cbb60e01b81526001600160a01b03918216600482015260248101849052929350169063a9059cbb90604401611525565b600080546001600160a01b03163314611b7757600080fd5b600e80546001810182556000919091528551611bba917fbb7b4a454dc3493923482f07822329ed19e8244eff582cc204f8554c3620c3fd01906020880190611ded565b5050600f8054600181810190925560208082047f8d1108e10bcb7c27dddfc02ed9d693a074039d026cf4ea4240b40f7d581ac802018054871515601f94851661010090810a91820260ff9283021990931692909217909255601080548087019091559283047f1b6847dc741a1b0cd08d278845f9d819d87b734759afb55fe2de5cb82a9ae6720180548815159490951690910a92830292909102199092161790556011805480830182556000919091527f31ecc21a745e3968a04e9570e4425bc18fa8019c68028196b546d1669c200c6801829055949350505050565b6000546001600160a01b03163314611cae57600080fd5b6001600160a01b038116611cc157600080fd5b600080546040516001600160a01b03808516939216917f8be0079c531659141344cd1fd0a4f28419497f9722a3daafe3b4186f6b6457e091a3600080546001600160a01b0319166001600160a01b0392909216919091179055565b6000546001600160a01b03163314611d3357600080fd5b600280549115156101000261ff0019909216919091179055565b828054828255906000526020600020908101928215611da2579160200282015b82811115611da257825182546001600160a01b0319166001600160a01b03909116178255602090920191600190910190611d6d565b50611dae929150611e60565b5090565b828054828255906000526020600020908101928215611da2579160200282015b82811115611da2578251825591602001919060010190611dd2565b828054611df990612456565b90600052602060002090601f016020900481019282611e1b5760008555611da2565b82601f10611e3457805160ff1916838001178555611da2565b82800160010185558215611da25791820182811115611da2578251825591602001919060010190611dd2565b5b80821115611dae5760008155600101611e61565b600082601f830112611e8657600080fd5b81356020611e9b611e9683612432565b612401565b80838252828201915082860187848660051b8901011115611ebb57600080fd5b60005b85811015611eda57813584529284019290840190600101611ebe565b5090979650505050505050565b600082601f830112611ef857600080fd5b813567ffffffffffffffff811115611f1257611f126124d0565b611f25601f8201601f1916602001612401565b818152846020838601011115611f3a57600080fd5b816020850160208301376000918101602001919091529392505050565b600060208284031215611f6957600080fd5b8135611f74816124e6565b9392505050565b60008060408385031215611f8e57600080fd5b8235611f99816124e6565b946020939093013593505050565b60008060408385031215611fba57600080fd5b823567ffffffffffffffff80821115611fd257600080fd5b818501915085601f830112611fe657600080fd5b81356020611ff6611e9683612432565b8083825282820191508286018a848660051b890101111561201657600080fd5b600096505b8487101561204257803561202e816124e6565b83526001969096019591830191830161201b565b509650508601359250508082111561205957600080fd5b5061206685828601611e75565b9150509250929050565b60006020828403121561208257600080fd5b813567ffffffffffffffff81111561209957600080fd5b6120a584828501611e75565b949350505050565b6000602082840312156120bf57600080fd5b8135611f74816124fe565b6000602082840312156120dc57600080fd5b8151611f74816124fe565b600080600080608085870312156120fd57600080fd5b843567ffffffffffffffff81111561211457600080fd5b61212087828801611ee7565b9450506020850135612131816124fe565b92506040850135612141816124fe565b9396929550929360600135925050565b60006020828403121561216357600080fd5b5035919050565b60006020828403121561217c57600080fd5b5051919050565b60008060006060848603121561219857600080fd5b8335925060208401356121aa816124e6565b929592945050506040919091013590565b600080600080600060a086880312156121d357600080fd5b85359450602086013567ffffffffffffffff8111156121f157600080fd5b6121fd88828901611ee7565b945050604086013561220e816124fe565b9250606086013561221e816124fe565b949793965091946080013592915050565b600081518084526020808501945080840160005b83811015612261578151151587529582019590820190600101612243565b509495945050505050565b600081518084526020808501945080840160005b8381101561226157815187529582019590820190600101612280565b6000815180845260005b818110156122c2576020818501810151868301820152016122a6565b818111156122d4576000602083870101525b50601f01601f19169290920160200192915050565b6001600160a01b039384168152919092166020820152604081019190915260600190565b6000608082016080835280875180835260a08501915060a08160051b86010192506020808a0160005b8381101561236457609f1988870301855261235286835161229c565b95509382019390820190600101612336565b50508584038187015250505061237a818761222f565b9050828103604084015261238e818661222f565b905082810360608401526123a2818561226c565b979650505050505050565b602081526000611f74602083018461226c565b6040815260006123d3604083018561226c565b82810360208401526123e5818561226c565b95945050505050565b602081526000611f74602083018461229c565b604051601f8201601f1916810167ffffffffffffffff8111828210171561242a5761242a6124d0565b604052919050565b600067ffffffffffffffff82111561244c5761244c6124d0565b5060051b60200190565b600181811c9082168061246a57607f821691505b6020821081141561248b57634e487b7160e01b600052602260045260246000fd5b50919050565b60006000198214156124b357634e487b7160e01b600052601160045260246000fd5b5060010190565b634e487b7160e01b600052603260045260246000fd5b634e487b7160e01b600052604160045260246000fd5b6001600160a01b03811681146124fb57600080fd5b50565b80151581146124fb57600080fdfea26469706673582212205b9a4283759b684a85233fb2b762e86d5ac92584b68f2ead177c2be4495af61964736f6c63430008070033",
    "sourcePath": "c:/Users/STC/Documents/GitHub/Crypto-Soccer-Testnet/contracts/Market 2.0/Inventario.sol",
    "compiler": {
        "name": "solc",
        "version": "0.8.7+commit.e28d00a7"
    },
    "functionHashes": {
        "ChangePrincipalToken(address)": "cc360058",
        "ChangeTokenOTRO(address)": "96ba5363",
        "FEE_CSC(uint256)": "209f2a66",
        "SellItemFromMarket(uint256,address,uint256)": "16c38cee",
        "SubItemfromMarket(address,uint256)": "17fecb4b",
        "WALLETS_FEE(uint256)": "6327463e",
        "addItem(string,bool,bool,uint256)": "f162bbed",
        "addItemToMarket(address,uint256)": "a72bce57",
        "admin(address)": "63a846f8",
        "adminWallet()": "36b19cd7",
        "almacen(address,uint256)": "1cfd9e3f",
        "baneado(address)": "cdba068c",
        "buyItemFromMarket(address,uint256)": "162db929",
        "buyItems()": "c0258191",
        "buyItemsGame(uint256)": "c850dd97",
        "comprable(uint256)": "517aa366",
        "editItem(uint256,string,bool,bool,uint256)": "26925c36",
        "imprimible(uint256)": "bc851f25",
        "items(uint256)": "bfb231d2",
        "largoInventario(address)": "c991c474",
        "largoItems()": "238393e4",
        "makeNewAdmin(address)": "69ed1e0a",
        "makeRemoveAdmin(address)": "70a0966b",
        "market(address,uint256)": "94756aa7",
        "market_price(address,uint256)": "c24a61b8",
        "market_token(address,uint256)": "55019f2c",
        "migracion()": "989b85ab",
        "migrar(uint256[])": "8833ac45",
        "owner()": "8da5cb5b",
        "precio(uint256)": "48053bc5",
        "redimETH()": "2e9928d3",
        "redimOTRO()": "8929cbc5",
        "redimTokenPrincipal01()": "eb5b455a",
        "redimTokenPrincipal02(uint256)": "1140e85b",
        "sellItems()": "d2beb268",
        "token()": "fc0c546a",
        "transferOwnership(address)": "f2fde38b",
        "updateBuyItems(bool)": "f9de8c16",
        "updateWalletsFee(address[],uint256[])": "003fb087",
        "verInventario(address)": "aaa272a6",
        "verItemsMarket()": "1c7f2bc8",
        "verMarket(address)": "556cb7d1"
    },
    "gasEstimates": {
        "creation": {
            "codeDepositCost": "1907600",
            "executionCost": "infinite",
            "totalCost": "infinite"
        },
        "external": {
            "ChangePrincipalToken(address)": "51119",
            "ChangeTokenOTRO(address)": "26887",
            "FEE_CSC(uint256)": "4654",
            "SellItemFromMarket(uint256,address,uint256)": "infinite",
            "SubItemfromMarket(address,uint256)": "9945",
            "WALLETS_FEE(uint256)": "4681",
            "addItem(string,bool,bool,uint256)": "infinite",
            "addItemToMarket(address,uint256)": "51231",
            "admin(address)": "2614",
            "adminWallet()": "2405",
            "almacen(address,uint256)": "4795",
            "baneado(address)": "2658",
            "buyItemFromMarket(address,uint256)": "infinite",
            "buyItems()": "2454",
            "buyItemsGame(uint256)": "infinite",
            "comprable(uint256)": "6348",
            "editItem(uint256,string,bool,bool,uint256)": "infinite",
            "imprimible(uint256)": "6325",
            "items(uint256)": "infinite",
            "largoInventario(address)": "2609",
            "largoItems()": "2393",
            "makeNewAdmin(address)": "28069",
            "makeRemoveAdmin(address)": "28073",
            "market(address,uint256)": "4817",
            "market_price(address,uint256)": "4772",
            "market_token(address,uint256)": "4912",
            "migracion()": "2444",
            "migrar(uint256[])": "infinite",
            "owner()": "2405",
            "precio(uint256)": "4654",
            "redimETH()": "infinite",
            "redimOTRO()": "infinite",
            "redimTokenPrincipal01()": "infinite",
            "redimTokenPrincipal02(uint256)": "infinite",
            "sellItems()": "2365",
            "token()": "2491",
            "transferOwnership(address)": "30504",
            "updateBuyItems(bool)": "26809",
            "updateWalletsFee(address[],uint256[])": "infinite",
            "verInventario(address)": "infinite",
            "verItemsMarket()": "infinite",
            "verMarket(address)": "infinite"
        }
    }
}