{
    "contractName": "Inventario",
    "abi": [
        {
            "inputs": [],
            "stateMutability": "nonpayable",
            "type": "constructor"
        },
        {
            "anonymous": false,
            "inputs": [
                {
                    "indexed": true,
                    "internalType": "address",
                    "name": "admin",
                    "type": "address"
                }
            ],
            "name": "AdminRemoved",
            "type": "event"
        },
        {
            "anonymous": false,
            "inputs": [
                {
                    "indexed": true,
                    "internalType": "address",
                    "name": "admin",
                    "type": "address"
                }
            ],
            "name": "NewAdmin",
            "type": "event"
        },
        {
            "anonymous": false,
            "inputs": [
                {
                    "indexed": true,
                    "internalType": "address",
                    "name": "previousOwner",
                    "type": "address"
                },
                {
                    "indexed": true,
                    "internalType": "address",
                    "name": "newOwner",
                    "type": "address"
                }
            ],
            "name": "OwnershipTransferred",
            "type": "event"
        },
        {
            "inputs": [
                {
                    "internalType": "address",
                    "name": "_tokenERC20",
                    "type": "address"
                }
            ],
            "name": "ChangePrincipalToken",
            "outputs": [
                {
                    "internalType": "bool",
                    "name": "",
                    "type": "bool"
                }
            ],
            "stateMutability": "nonpayable",
            "type": "function"
        },
        {
            "inputs": [
                {
                    "internalType": "address",
                    "name": "_tokenERC20",
                    "type": "address"
                }
            ],
            "name": "ChangeTokenOTRO",
            "outputs": [
                {
                    "internalType": "bool",
                    "name": "",
                    "type": "bool"
                }
            ],
            "stateMutability": "nonpayable",
            "type": "function"
        },
        {
            "inputs": [
                {
                    "internalType": "uint256",
                    "name": "",
                    "type": "uint256"
                }
            ],
            "name": "FEE_CSC",
            "outputs": [
                {
                    "internalType": "uint256",
                    "name": "",
                    "type": "uint256"
                }
            ],
            "stateMutability": "view",
            "type": "function"
        },
        {
            "inputs": [
                {
                    "internalType": "uint256",
                    "name": "_item",
                    "type": "uint256"
                },
                {
                    "internalType": "address",
                    "name": "_token",
                    "type": "address"
                },
                {
                    "internalType": "uint256",
                    "name": "_price",
                    "type": "uint256"
                }
            ],
            "name": "SellItemFromMarket",
            "outputs": [],
            "stateMutability": "nonpayable",
            "type": "function"
        },
        {
            "inputs": [
                {
                    "internalType": "address",
                    "name": "_user",
                    "type": "address"
                },
                {
                    "internalType": "uint256",
                    "name": "_item",
                    "type": "uint256"
                }
            ],
            "name": "SubItemfromMarket",
            "outputs": [],
            "stateMutability": "nonpayable",
            "type": "function"
        },
        {
            "inputs": [
                {
                    "internalType": "uint256",
                    "name": "",
                    "type": "uint256"
                }
            ],
            "name": "WALLETS_FEE",
            "outputs": [
                {
                    "internalType": "address",
                    "name": "",
                    "type": "address"
                }
            ],
            "stateMutability": "view",
            "type": "function"
        },
        {
            "inputs": [
                {
                    "internalType": "string",
                    "name": "_nombre",
                    "type": "string"
                },
                {
                    "internalType": "bool",
                    "name": "_comprable",
                    "type": "bool"
                },
                {
                    "internalType": "bool",
                    "name": "_imprimible",
                    "type": "bool"
                },
                {
                    "internalType": "uint256",
                    "name": "_precio",
                    "type": "uint256"
                }
            ],
            "name": "addItem",
            "outputs": [
                {
                    "internalType": "bool",
                    "name": "",
                    "type": "bool"
                }
            ],
            "stateMutability": "nonpayable",
            "type": "function"
        },
        {
            "inputs": [
                {
                    "internalType": "address",
                    "name": "_user",
                    "type": "address"
                },
                {
                    "internalType": "uint256",
                    "name": "_item",
                    "type": "uint256"
                }
            ],
            "name": "addItemToMarket",
            "outputs": [],
            "stateMutability": "nonpayable",
            "type": "function"
        },
        {
            "inputs": [
                {
                    "internalType": "address",
                    "name": "",
                    "type": "address"
                }
            ],
            "name": "admin",
            "outputs": [
                {
                    "internalType": "bool",
                    "name": "",
                    "type": "bool"
                }
            ],
            "stateMutability": "view",
            "type": "function"
        },
        {
            "inputs": [],
            "name": "adminWallet",
            "outputs": [
                {
                    "internalType": "address",
                    "name": "",
                    "type": "address"
                }
            ],
            "stateMutability": "view",
            "type": "function"
        },
        {
            "inputs": [
                {
                    "internalType": "address",
                    "name": "",
                    "type": "address"
                },
                {
                    "internalType": "uint256",
                    "name": "",
                    "type": "uint256"
                }
            ],
            "name": "almacen",
            "outputs": [
                {
                    "internalType": "uint256",
                    "name": "",
                    "type": "uint256"
                }
            ],
            "stateMutability": "view",
            "type": "function"
        },
        {
            "inputs": [
                {
                    "internalType": "address",
                    "name": "",
                    "type": "address"
                }
            ],
            "name": "baneado",
            "outputs": [
                {
                    "internalType": "bool",
                    "name": "",
                    "type": "bool"
                }
            ],
            "stateMutability": "view",
            "type": "function"
        },
        {
            "inputs": [
                {
                    "internalType": "address",
                    "name": "_user",
                    "type": "address"
                },
                {
                    "internalType": "uint256",
                    "name": "_item",
                    "type": "uint256"
                }
            ],
            "name": "buyItemFromMarket",
            "outputs": [],
            "stateMutability": "nonpayable",
            "type": "function"
        },
        {
            "inputs": [],
            "name": "buyItems",
            "outputs": [
                {
                    "internalType": "bool",
                    "name": "",
                    "type": "bool"
                }
            ],
            "stateMutability": "view",
            "type": "function"
        },
        {
            "inputs": [
                {
                    "internalType": "uint256",
                    "name": "_item",
                    "type": "uint256"
                }
            ],
            "name": "buyItemsGame",
            "outputs": [],
            "stateMutability": "nonpayable",
            "type": "function"
        },
        {
            "inputs": [
                {
                    "internalType": "uint256",
                    "name": "",
                    "type": "uint256"
                }
            ],
            "name": "comprable",
            "outputs": [
                {
                    "internalType": "bool",
                    "name": "",
                    "type": "bool"
                }
            ],
            "stateMutability": "view",
            "type": "function"
        },
        {
            "inputs": [
                {
                    "internalType": "uint256",
                    "name": "_id",
                    "type": "uint256"
                },
                {
                    "internalType": "string",
                    "name": "_nombre",
                    "type": "string"
                },
                {
                    "internalType": "bool",
                    "name": "_comprable",
                    "type": "bool"
                },
                {
                    "internalType": "bool",
                    "name": "_imprimible",
                    "type": "bool"
                },
                {
                    "internalType": "uint256",
                    "name": "_precio",
                    "type": "uint256"
                }
            ],
            "name": "editItem",
            "outputs": [
                {
                    "internalType": "bool",
                    "name": "",
                    "type": "bool"
                }
            ],
            "stateMutability": "nonpayable",
            "type": "function"
        },
        {
            "inputs": [
                {
                    "internalType": "uint256",
                    "name": "",
                    "type": "uint256"
                }
            ],
            "name": "imprimible",
            "outputs": [
                {
                    "internalType": "bool",
                    "name": "",
                    "type": "bool"
                }
            ],
            "stateMutability": "view",
            "type": "function"
        },
        {
            "inputs": [
                {
                    "internalType": "uint256",
                    "name": "",
                    "type": "uint256"
                }
            ],
            "name": "items",
            "outputs": [
                {
                    "internalType": "string",
                    "name": "",
                    "type": "string"
                }
            ],
            "stateMutability": "view",
            "type": "function"
        },
        {
            "inputs": [
                {
                    "internalType": "address",
                    "name": "_user",
                    "type": "address"
                }
            ],
            "name": "largoInventario",
            "outputs": [
                {
                    "internalType": "uint256",
                    "name": "",
                    "type": "uint256"
                }
            ],
            "stateMutability": "view",
            "type": "function"
        },
        {
            "inputs": [],
            "name": "largoItems",
            "outputs": [
                {
                    "internalType": "uint256",
                    "name": "",
                    "type": "uint256"
                }
            ],
            "stateMutability": "view",
            "type": "function"
        },
        {
            "inputs": [
                {
                    "internalType": "address payable",
                    "name": "_newadmin",
                    "type": "address"
                }
            ],
            "name": "makeNewAdmin",
            "outputs": [],
            "stateMutability": "nonpayable",
            "type": "function"
        },
        {
            "inputs": [
                {
                    "internalType": "address payable",
                    "name": "_oldadmin",
                    "type": "address"
                }
            ],
            "name": "makeRemoveAdmin",
            "outputs": [],
            "stateMutability": "nonpayable",
            "type": "function"
        },
        {
            "inputs": [
                {
                    "internalType": "address",
                    "name": "",
                    "type": "address"
                },
                {
                    "internalType": "uint256",
                    "name": "",
                    "type": "uint256"
                }
            ],
            "name": "market",
            "outputs": [
                {
                    "internalType": "uint256",
                    "name": "",
                    "type": "uint256"
                }
            ],
            "stateMutability": "view",
            "type": "function"
        },
        {
            "inputs": [
                {
                    "internalType": "address",
                    "name": "",
                    "type": "address"
                },
                {
                    "internalType": "uint256",
                    "name": "",
                    "type": "uint256"
                }
            ],
            "name": "market_price",
            "outputs": [
                {
                    "internalType": "uint256",
                    "name": "",
                    "type": "uint256"
                }
            ],
            "stateMutability": "view",
            "type": "function"
        },
        {
            "inputs": [
                {
                    "internalType": "address",
                    "name": "",
                    "type": "address"
                },
                {
                    "internalType": "uint256",
                    "name": "",
                    "type": "uint256"
                }
            ],
            "name": "market_token",
            "outputs": [
                {
                    "internalType": "address",
                    "name": "",
                    "type": "address"
                }
            ],
            "stateMutability": "view",
            "type": "function"
        },
        {
            "inputs": [],
            "name": "migracion",
            "outputs": [
                {
                    "internalType": "bool",
                    "name": "",
                    "type": "bool"
                }
            ],
            "stateMutability": "view",
            "type": "function"
        },
        {
            "inputs": [
                {
                    "internalType": "address",
                    "name": "",
                    "type": "address"
                }
            ],
            "name": "migrado",
            "outputs": [
                {
                    "internalType": "bool",
                    "name": "",
                    "type": "bool"
                }
            ],
            "stateMutability": "view",
            "type": "function"
        },
        {
            "inputs": [
                {
                    "internalType": "uint256[]",
                    "name": "_inventario",
                    "type": "uint256[]"
                }
            ],
            "name": "migrar",
            "outputs": [],
            "stateMutability": "nonpayable",
            "type": "function"
        },
        {
            "inputs": [],
            "name": "owner",
            "outputs": [
                {
                    "internalType": "address payable",
                    "name": "",
                    "type": "address"
                }
            ],
            "stateMutability": "view",
            "type": "function"
        },
        {
            "inputs": [
                {
                    "internalType": "uint256",
                    "name": "",
                    "type": "uint256"
                }
            ],
            "name": "precio",
            "outputs": [
                {
                    "internalType": "uint256",
                    "name": "",
                    "type": "uint256"
                }
            ],
            "stateMutability": "view",
            "type": "function"
        },
        {
            "inputs": [],
            "name": "redimETH",
            "outputs": [
                {
                    "internalType": "uint256",
                    "name": "",
                    "type": "uint256"
                }
            ],
            "stateMutability": "nonpayable",
            "type": "function"
        },
        {
            "inputs": [],
            "name": "redimOTRO",
            "outputs": [
                {
                    "internalType": "uint256",
                    "name": "",
                    "type": "uint256"
                }
            ],
            "stateMutability": "nonpayable",
            "type": "function"
        },
        {
            "inputs": [],
            "name": "redimTokenPrincipal01",
            "outputs": [
                {
                    "internalType": "uint256",
                    "name": "",
                    "type": "uint256"
                }
            ],
            "stateMutability": "nonpayable",
            "type": "function"
        },
        {
            "inputs": [
                {
                    "internalType": "uint256",
                    "name": "_value",
                    "type": "uint256"
                }
            ],
            "name": "redimTokenPrincipal02",
            "outputs": [
                {
                    "internalType": "uint256",
                    "name": "",
                    "type": "uint256"
                }
            ],
            "stateMutability": "nonpayable",
            "type": "function"
        },
        {
            "inputs": [],
            "name": "sellItems",
            "outputs": [
                {
                    "internalType": "bool",
                    "name": "",
                    "type": "bool"
                }
            ],
            "stateMutability": "view",
            "type": "function"
        },
        {
            "inputs": [],
            "name": "token",
            "outputs": [
                {
                    "internalType": "address",
                    "name": "",
                    "type": "address"
                }
            ],
            "stateMutability": "view",
            "type": "function"
        },
        {
            "inputs": [
                {
                    "internalType": "address payable",
                    "name": "newOwner",
                    "type": "address"
                }
            ],
            "name": "transferOwnership",
            "outputs": [],
            "stateMutability": "nonpayable",
            "type": "function"
        },
        {
            "inputs": [
                {
                    "internalType": "bool",
                    "name": "_truefalse",
                    "type": "bool"
                }
            ],
            "name": "updateBuyItems",
            "outputs": [],
            "stateMutability": "nonpayable",
            "type": "function"
        },
        {
            "inputs": [
                {
                    "internalType": "address[]",
                    "name": "_wallets",
                    "type": "address[]"
                },
                {
                    "internalType": "uint256[]",
                    "name": "_valores",
                    "type": "uint256[]"
                }
            ],
            "name": "updateWalletsFee",
            "outputs": [],
            "stateMutability": "nonpayable",
            "type": "function"
        },
        {
            "inputs": [
                {
                    "internalType": "address",
                    "name": "_user",
                    "type": "address"
                }
            ],
            "name": "verInventario",
            "outputs": [
                {
                    "internalType": "uint256[]",
                    "name": "",
                    "type": "uint256[]"
                }
            ],
            "stateMutability": "view",
            "type": "function"
        },
        {
            "inputs": [],
            "name": "verItemsMarket",
            "outputs": [
                {
                    "internalType": "string[]",
                    "name": "",
                    "type": "string[]"
                },
                {
                    "internalType": "bool[]",
                    "name": "",
                    "type": "bool[]"
                },
                {
                    "internalType": "bool[]",
                    "name": "",
                    "type": "bool[]"
                },
                {
                    "internalType": "uint256[]",
                    "name": "",
                    "type": "uint256[]"
                }
            ],
            "stateMutability": "view",
            "type": "function"
        },
        {
            "inputs": [
                {
                    "internalType": "address",
                    "name": "_user",
                    "type": "address"
                }
            ],
            "name": "verMarket",
            "outputs": [
                {
                    "internalType": "uint256[]",
                    "name": "_items",
                    "type": "uint256[]"
                },
                {
                    "internalType": "uint256[]",
                    "name": "_price",
                    "type": "uint256[]"
                },
                {
                    "internalType": "address[]",
                    "name": "_token",
                    "type": "address[]"
                }
            ],
            "stateMutability": "view",
            "type": "function"
        }
    ],
    "bytecode": "6002805462ffffff19166201010117905560e0604052730c4c6519e8b6e4d9c99b09a3cda475638c930b00608090815261dead60a052724769ef6aec57efbf56c24d0a04fe619fbb614360c0526200005b906003908162000e16565b506040805160608101825268056bc75e2d6310000080825260208201819052918101919091526200009190600490600362000e80565b50600580546001600160a01b031990811673f0fb4a5acf1b1126a991ee189408b112028d7a63908117909255600680548216724769ef6aec57efbf56c24d0a04fe619fbb614317905560078054821683179055600880549091169091179055348015620000fd57600080fd5b50600080546001600160a01b031916339081178255815260016020818152604092839020805460ff191690921790915581516106208101835260146105e082018181527f74312d6272617a696c2d6c6567656e646172696f00000000000000000000000061060084015282528351808501855260178082527f74322d617267656e74696e612d6c6567656e646172696f00000000000000000082860152838501919091528451808601865260168082527f74332d616c656d616e69612d6c6567656e646172696f00000000000000000000828701528487019190915285518087018752600e8082526d74342d6a61706f6e2d657069636f60901b8288015260608601919091528651808801885260118082527074352d636f6c6f6d6269612d657069636f60781b82890152608087019190915287518089018952600f8082526e74362d6d657869636f2d657069636f60881b828a015260a08801919091528851808a018a5260108082526f74372d63726f616369612d657069636f60801b828b015260c08901919091528951808b018b52600b81526a74382d45552d657069636f60a81b818b015260e08901528951808b018b528381527074392d706f72747567616c2d657069636f60781b818b01526101008901528951808b018b52600d81526c7431302d6573702d657069636f60981b818b01526101208901528951808b018b5260138082527f7431312d617267656e74696e612d636f6d756e00000000000000000000000000828c01526101408a01919091528a51808c018c528181527f7431322d6175737472616c69612d636f6d756e00000000000000000000000000818c01526101608a01528a51808c018c52848152703a189996b132b633b4bab696b1b7b6bab760791b818c01526101808a01528a51808c018c528281526f3a189a16b13930bd34b616b1b7b6bab760811b818c01526101a08a01528a51808c018c528381526e3a189a96b1b0b7323096b1b7b6bab760891b818c01526101c08a01528a51808c018c526012808252713a189b16b1b7b637b6b134b096b1b7b6bab760711b828d01526101e08b01919091528b51808d018d528281527f7431372d636f737461526963612d636f6d756e00000000000000000000000000818d01526102008b01528b51808d018d52858152703a189c16b1b937b0ba34b096b1b7b6bab760791b818d01526102208b01528b51808d018d52858152703a189c96b232b736b0b93596b1b7b6bab760791b818d01526102408b01528b51808d018d52858152703a191816b2b733b630b73216b1b7b6bab760791b818d01526102608b01528b51808d018d52858152703a191896b3b2b936b0b73c96b1b7b6bab760791b818d01526102808b01528b51808d018d52858152703a191916b437b63630b73216b1b7b6bab760791b818d01526102a08b01528b51808d018d52858152703a191996b4b1b2b630b73216b1b7b6bab760791b818d01526102c08b01528b51808d018d528681526d3a191a16b4b930b716b1b7b6bab760911b818d01526102e08b01528b51808d018d528481526e3a191a96b4ba30b63c96b1b7b6bab760891b818d01526103008b01528b51808d018d529889527f7432362d69766f7279436f6173742d636f6d756e000000000000000000000000898c01526103208a01989098528a51808c018c528381526e3a191b96b530b830b716b1b7b6bab760891b818c01526103408a01528a51808c018c529687527f7432382d6b6f72656152657075626c69632d636f6d756e000000000000000000878b01526103608901969096528951808b018b528181526f3a191c96b6b2bc34b1b796b1b7b6bab760811b818b01526103808901528951808b018b528181526f3a199816b830b730b6b096b1b7b6bab760811b818b01526103a08901528951808b018b529384526d3a199896b832b93a96b1b7b6bab760911b848a01526103c08801939093528851808a018a528381526f3a199916b837b630b73216b1b7b6bab760811b818a01526103e08801528851808a018a52958652713a199996b837b93a3ab3b0b616b1b7b6bab760711b86890152610400870195909552875180890189528281526f3a199a16b93ab9b9b4b096b1b7b6bab760811b8189015261042087015287518089018952818152703a199a96b9b2b732b3b0b616b1b7b6bab760791b81890152610440870152875180890189528281526f3a199b16b9b2b93134b096b1b7b6bab760811b81890152610460870152875180890189528581526e3a199b96b9b830b4b716b1b7b6bab760891b81890152610480870152875180890189529182526f3a199c16b9bbb2b232b716b1b7b6bab760811b828801526104a086019190915286518088018852601581527f7433392d737769747a65726c616e642d636f6d756e0000000000000000000000818801526104c086015286518088018852818152703a1a1816ba3ab734b9b4b096b1b7b6bab760791b818801526104e0860152865180880188529182527f7434312d756e697465645374617465732d636f6d756e000000000000000000008287015261050085019190915285518087018752908152703a1a1916bab93ab3bab0bc96b1b7b6bab760791b81860152610520840152845180860186529081527f7434332d76656e657a75656c612d636f6d756e000000000000000000000000008185015261054083015283518085018552600c8082526b331896b337b936b0b1b4b7b760a11b82860152610560840191909152845180860186528181526b331916b337b936b0b1b4b7b760a11b81860152610580840152845180860186528181526b331996b337b936b0b1b4b7b760a11b818601526105a0840152845180860190955284526b331a16b337b936b0b1b4b7b760a11b928401929092526105c08101929092526200095491602f62000ec9565b50604080516105e081018252600080825260208201819052918101829052606081018290526080810182905260a0810182905260c0810182905260e08101829052610100810182905261012081019190915260016101408201819052610160820181905261018082018190526101a082018190526101c082018190526101e08201819052610200820181905261022082018190526102408201819052610260820181905261028082018190526102a082018190526102c082018190526102e08201819052610300820181905261032082018190526103408201819052610360820181905261038082018190526103a082018190526103c082018190526103e08201819052610400820181905261042082018190526104408201819052610460820181905261048082018190526104a082018190526104c082018190526104e08201819052610500820181905261052082018190526105408201819052610560820181905261058082018190526105a082018190526105c082015262000ade90601090602f62000f29565b50604080516105c081018252600180825260208201819052918101829052606081018290526080810182905260a0810182905260c0810182905260e08101829052610100810182905261012081018290526101408101919091526000610160820181905261018082018190526101a082018190526101c082018190526101e08201819052610200820181905261022082018190526102408201819052610260820181905261028082018190526102a082018190526102c082018190526102e08201819052610300820181905261032082018190526103408201819052610360820181905261038082018190526103a082018190526103c082018190526103e08201819052610400820181905261042082018190526104408201819052610460820181905261048082018190526104a082018190526104c082018190526104e08201819052610500820181905261052082018190526105408201819052610560820181905261058082018190526105a082015262000c6090601190602e62000f29565b50604080516105e0810182526a52b7d2dcc80cd2e400000080825260208201819052918101919091526a084595161401484a000000606082018190526080820181905260a0820181905260c0820181905260e08201819052610100820181905261012082015269010f0cf064dd592000006101408201819052610160820181905261018082018190526101a082018190526101c082018190526101e08201819052610200820181905261022082018190526102408201819052610260820181905261028082018190526102a082018190526102c082018190526102e08201819052610300820181905261032082018190526103408201819052610360820181905261038082018190526103a082018190526103c082018190526103e08201819052610400820181905261042082018190526104408201819052610460820181905261048082018190526104a082018190526104c082018190526104e0820181905261050082018190526105208201819052610540820152686c6b935b8bbd400000610560820181905261058082018190526105a082018190526105c082015262000e0f90601290602f62000fd0565b506200114d565b82805482825590600052602060002090810192821562000e6e579160200282015b8281111562000e6e57825182546001600160a01b0319166001600160a01b0390911617825560209092019160019091019062000e37565b5062000e7c92915062001019565b5090565b82805482825590600052602060002090810192821562000e6e579160200282015b8281111562000e6e57825182906001600160481b031690559160200191906001019062000ea1565b82805482825590600052602060002090810192821562000f1b579160200282015b8281111562000f1b578251805162000f0a91849160209091019062001030565b509160200191906001019062000eea565b5062000e7c929150620010ad565b82805482825590600052602060002090601f0160209004810192821562000e6e5791602002820160005b8382111562000f9257835183826101000a81548160ff021916908315150217905550926020019260010160208160000104928301926001030262000f53565b801562000fc15782816101000a81549060ff021916905560010160208160000104928301926001030262000f92565b505062000e7c92915062001019565b82805482825590600052602060002090810192821562000e6e579160200282015b8281111562000e6e57825182906001600160581b031690559160200191906001019062000ff1565b5b8082111562000e7c57600081556001016200101a565b8280546200103e9062001110565b90600052602060002090601f01602090048101928262001062576000855562000e6e565b82601f106200107d57805160ff191683800117855562000e6e565b8280016001018555821562000e6e579182015b8281111562000e6e57825182559160200191906001019062001090565b8082111562000e7c576000620010c48282620010ce565b50600101620010ad565b508054620010dc9062001110565b6000825580601f10620010ed575050565b601f0160209004906000526020600020908101906200110d919062001019565b50565b600181811c908216806200112557607f821691505b602082108114156200114757634e487b7160e01b600052602260045260246000fd5b50919050565b61292f806200115d6000396000f3fe608060405234801561001057600080fd5b50600436106102685760003560e01c80638833ac4511610151578063c24a61b8116100c3578063d2beb26811610087578063d2beb268146105b5578063eb5b455a146105c8578063f162bbed146105d0578063f2fde38b146105e3578063f9de8c16146105f6578063fc0c546a1461060957600080fd5b8063c24a61b814610530578063c850dd9714610543578063c991c47414610556578063cc3600581461057f578063cdba068c1461059257600080fd5b8063989b85ab11610115578063989b85ab146104ab578063a72bce57146104b8578063aaa272a6146104cb578063bc851f25146104eb578063bfb231d2146104fe578063c02581911461051e57600080fd5b80638833ac45146104575780638929cbc51461046a5780638da5cb5b1461047257806394756aa71461048557806396ba53631461049857600080fd5b80632a906e15116101ea57806355019f2c116101ae57806355019f2c146103c6578063556cb7d1146103d95780636327463e146103fb57806363a846f81461040e57806369ed1e0a1461043157806370a0966b1461044457600080fd5b80632a906e151461034a5780632e9928d31461036d57806336b19cd71461037557806348053bc5146103a0578063517aa366146103b357600080fd5b80631c7f2bc8116102315780631c7f2bc8146102e15780631cfd9e3f146102f9578063209f2a661461030c578063238393e41461031f57806326925c361461032757600080fd5b80623fb0871461026d5780631140e85b14610282578063162db929146102a857806316c38cee146102bb57806317fecb4b146102ce575b600080fd5b61028061027b36600461231b565b61061c565b005b6102956102903660046124c5565b61065f565b6040519081526020015b60405180910390f35b6102806102b63660046122ef565b61078c565b6102806102c93660046124f7565b610cd7565b6102806102dc3660046122ef565b610f0f565b6102e9610ffb565b60405161029f9493929190612681565b6102956103073660046122ef565b611220565b61029561031a3660046124c5565b611251565b600f54610295565b61033a61033536600461252f565b611272565b604051901515815260200161029f565b61033a6103583660046122cb565b60096020526000908152604090205460ff1681565b610295611362565b600654610388906001600160a01b031681565b6040516001600160a01b03909116815260200161029f565b6102956103ae3660046124c5565b6113c8565b61033a6103c13660046124c5565b6113d8565b6103886103d43660046122ef565b61140c565b6103ec6103e73660046122cb565b611444565b60405161029f93929190612734565b6103886104093660046124c5565b61157c565b61033a61041c3660046122cb565b60016020526000908152604090205460ff1681565b61028061043f3660046122cb565b6115a6565b6102806104523660046122cb565b61162b565b6102806104653660046123e4565b6116aa565b610295611746565b600054610388906001600160a01b031681565b6102956104933660046122ef565b6118f1565b61033a6104a63660046122cb565b61190d565b60025461033a9060ff1681565b6102806104c63660046122ef565b61194a565b6104de6104d93660046122cb565b6119b8565b60405161029f9190612721565b61033a6104f93660046124c5565b611a24565b61051161050c3660046124c5565b611a34565b60405161029f91906127a6565b60025461033a90610100900460ff1681565b61029561053e3660046122ef565b611ae0565b6102806105513660046124c5565b611afc565b6102956105643660046122cb565b6001600160a01b03166000908152600b602052604090205490565b61033a61058d3660046122cb565b611d31565b61033a6105a03660046122cb565b600a6020526000908152604090205460ff1681565b60025461033a9062010000900460ff1681565b610295611d7c565b61033a6105de36600461245b565b611ed3565b6102806105f13660046122cb565b61200b565b610280610604366004612421565b612090565b600554610388906001600160a01b031681565b6000546001600160a01b0316331461063357600080fd5b81516106469060039060208501906120c1565b50805161065a906004906020840190612126565b505050565b600080546001600160a01b0316331461067757600080fd5b6007546040516370a0823160e01b815230600482015283916001600160a01b0316906370a082319060240160206040518083038186803b1580156106ba57600080fd5b505afa1580156106ce573d6000803e3d6000fd5b505050506040513d601f19601f820116820180604052508101906106f291906124de565b10156106fd57600080fd5b60075460005460405163a9059cbb60e01b81526001600160a01b0391821660048201526024810185905291169063a9059cbb90604401602060405180830381600087803b15801561074d57600080fd5b505af1158015610761573d6000803e3d6000fd5b505050506040513d601f19601f82011682018060405250810190610785919061243e565b5090919050565b60025462010000900460ff1615806107bc57506001600160a01b0382166000908152600a602052604090205460ff165b806107d65750336000908152600a602052604090205460ff165b8061083457506001600160a01b0382166000908152600d602052604081208054600a9291908490811061080b5761080b6128a7565b60009182526020808320909101546001600160a01b0316835282019290925260400190205460ff165b1561083e57600080fd5b6001600160a01b0382166000908152600d60205260408120805483908110610868576108686128a7565b60009182526020822001546001600160a01b031691505b60035481101561097657600754600380546001600160a01b03909216916323b872dd913391859081106108b4576108b46128a7565b600091825260209091200154600480546001600160a01b0390921691869081106108e0576108e06128a7565b90600052602060002001546040518463ffffffff1660e01b81526004016109099392919061265d565b602060405180830381600087803b15801561092357600080fd5b505af1158015610937573d6000803e3d6000fd5b505050506040513d601f19601f8201168201806040525081019061095b919061243e565b61096457600080fd5b8061096e81612860565b91505061087f565b506001600160a01b0383163314610a5257806001600160a01b03166323b872dd3385600e6000886001600160a01b03166001600160a01b0316815260200190815260200160002086815481106109ce576109ce6128a7565b90600052602060002001546040518463ffffffff1660e01b81526004016109f79392919061265d565b602060405180830381600087803b158015610a1157600080fd5b505af1158015610a25573d6000803e3d6000fd5b505050506040513d601f19601f82011682018060405250810190610a49919061243e565b610a5257600080fd5b336000908152600b60209081526040808320805460018181018355918552838520018690556001600160a01b0387168452600c90925290912080549091610a989161280e565b81548110610aa857610aa86128a7565b9060005260206000200154600c6000856001600160a01b03166001600160a01b031681526020019081526020016000208381548110610ae957610ae96128a7565b60009182526020808320909101929092556001600160a01b0385168152600c90915260409020805480610b1e57610b1e612891565b6000828152602080822083016000199081018390559092019092556001600160a01b0385168252600e9052604090208054610b5b9060019061280e565b81548110610b6b57610b6b6128a7565b9060005260206000200154600e6000856001600160a01b03166001600160a01b031681526020019081526020016000208381548110610bac57610bac6128a7565b60009182526020808320909101929092556001600160a01b0385168152600e90915260409020805480610be157610be1612891565b6000828152602080822083016000199081018390559092019092556001600160a01b0385168252600d9052604090208054610c1e9060019061280e565b81548110610c2e57610c2e6128a7565b60009182526020808320909101546001600160a01b038681168452600d9092526040909220805491909216919084908110610c6b57610c6b6128a7565b600091825260208083209190910180546001600160a01b0319166001600160a01b039485161790559185168152600d90915260409020805480610cb057610cb0612891565b600082815260209020810160001990810180546001600160a01b0319169055019055505050565b60025462010000900460ff161580610cfe5750336000908152600a602052604090205460ff165b15610d0857600080fd5b60005b600354811015610e0257600754600380546001600160a01b03909216916323b872dd91339185908110610d4057610d406128a7565b600091825260209091200154600480546001600160a01b039092169186908110610d6c57610d6c6128a7565b90600052602060002001546040518463ffffffff1660e01b8152600401610d959392919061265d565b602060405180830381600087803b158015610daf57600080fd5b505af1158015610dc3573d6000803e3d6000fd5b505050506040513d601f19601f82011682018060405250810190610de7919061243e565b610df057600080fd5b80610dfa81612860565b915050610d0b565b50336000818152600c6020908152604080832080546001808201835591855283852001889055848452600e83528184208054808301825590855283852001869055848452600d8352818420805480830182559085528385200180546001600160a01b0319166001600160a01b038916179055938352600b909152902080549091610e8b9161280e565b81548110610e9b57610e9b6128a7565b6000918252602080832090910154338352600b9091526040909120805485908110610ec857610ec86128a7565b6000918252602080832090910192909255338152600b90915260409020805480610ef457610ef4612891565b60019003818190600052602060002001600090559055505050565b6001600160a01b0382166000908152600a602052604090205460ff1615610f3557600080fd5b6001600160a01b0382166000908152600b602052604090208054610f5b9060019061280e565b81548110610f6b57610f6b6128a7565b9060005260206000200154600b6000846001600160a01b03166001600160a01b031681526020019081526020016000208281548110610fac57610fac6128a7565b60009182526020808320909101929092556001600160a01b0384168152600b90915260409020805480610fe157610fe1612891565b600190038181906000526020600020016000905590555050565b606080606080600f60106011601283805480602002602001604051908101604052809291908181526020016000905b828210156110d657838290600052602060002001805461104990612825565b80601f016020809104026020016040519081016040528092919081815260200182805461107590612825565b80156110c25780601f10611097576101008083540402835291602001916110c2565b820191906000526020600020905b8154815290600101906020018083116110a557829003601f168201915b50505050508152602001906001019061102a565b5050505093508280548060200260200160405190810160405280929190818152602001828054801561114757602002820191906000526020600020906000905b825461010083900a900460ff1615158152602060019283018181049485019490930390920291018084116111165790505b50505050509250818054806020026020016040519081016040528092919081815260200182805480156111b957602002820191906000526020600020906000905b825461010083900a900460ff1615158152602060019283018181049485019490930390920291018084116111885790505b505050505091508080548060200260200160405190810160405280929190818152602001828054801561120b57602002820191906000526020600020905b8154815260200190600101908083116111f7575b50505050509050935093509350935090919293565b600b602052816000526040600020818154811061123c57600080fd5b90600052602060002001600091509150505481565b6004818154811061126157600080fd5b600091825260209091200154905081565b600080546001600160a01b0316331461128a57600080fd5b84600f878154811061129e5761129e6128a7565b9060005260206000200190805190602001906112bb929190612161565b5083601087815481106112d0576112d06128a7565b90600052602060002090602091828204019190066101000a81548160ff021916908315150217905550826011878154811061130d5761130d6128a7565b90600052602060002090602091828204019190066101000a81548160ff021916908315150217905550816012878154811061134a5761134a6128a7565b60009182526020909120015550600195945050505050565b600080546001600160a01b0316331461137a57600080fd5b6000471161138757600080fd5b600080546040516001600160a01b03909116914780156108fc02929091818181858888f193505050501580156113c1573d6000803e3d6000fd5b5047905090565b6012818154811061126157600080fd5b601081815481106113e857600080fd5b9060005260206000209060209182820401919006915054906101000a900460ff1681565b600d602052816000526040600020818154811061142857600080fd5b6000918252602090912001546001600160a01b03169150829050565b6001600160a01b0381166000908152600c60209081526040808320600e8352818420600d84529382902081548351818602810186019094528084526060958695869591939285918301828280156114ba57602002820191906000526020600020905b8154815260200190600101908083116114a6575b505050505092508180548060200260200160405190810160405280929190818152602001828054801561150c57602002820191906000526020600020905b8154815260200190600101908083116114f8575b505050505091508080548060200260200160405190810160405280929190818152602001828054801561156857602002820191906000526020600020905b81546001600160a01b0316815260019091019060200180831161154a575b505050505090509250925092509193909250565b6003818154811061158c57600080fd5b6000918252602090912001546001600160a01b0316905081565b6000546001600160a01b031633146115bd57600080fd5b6001600160a01b0381166115d057600080fd5b6040516001600160a01b038216907f71614071b88dee5e0b2ae578a9dd7b2ebbe9ae832ba419dc0242cd065a290b6c90600090a26001600160a01b03166000908152600160208190526040909120805460ff19169091179055565b6000546001600160a01b0316331461164257600080fd5b6001600160a01b03811661165557600080fd5b6040516001600160a01b038216907fa3b62bc36326052d97ea62d63c3d60308ed4c3ea8ac079dd8499f1e9c4f80c0f90600090a26001600160a01b03166000908152600160205260409020805460ff19169055565b60025460ff1615806116ca5750336000908152600b602052604090205415155b806116e45750336000908152600a602052604090205460ff165b806116fe57503360009081526009602052604090205460ff165b1561170857600080fd5b336000908152600b60209081526040909120825161172892840190612126565b5050336000908152600960205260409020805460ff19166001179055565b600080546001600160a01b0316331461175e57600080fd5b6008546040516370a0823160e01b81523060048201526000916001600160a01b0316906370a082319060240160206040518083038186803b1580156117a257600080fd5b505afa1580156117b6573d6000803e3d6000fd5b505050506040513d601f19601f820116820180604052508101906117da91906124de565b116117e457600080fd5b6008546040516370a0823160e01b81523060048201526000916001600160a01b0316906370a082319060240160206040518083038186803b15801561182857600080fd5b505afa15801561183c573d6000803e3d6000fd5b505050506040513d601f19601f8201168201806040525081019061186091906124de565b60085460005460405163a9059cbb60e01b81526001600160a01b03918216600482015260248101849052929350169063a9059cbb906044015b602060405180830381600087803b1580156118b357600080fd5b505af11580156118c7573d6000803e3d6000fd5b505050506040513d601f19601f820116820180604052508101906118eb919061243e565b50905090565b600c602052816000526040600020818154811061123c57600080fd5b600080546001600160a01b0316331461192557600080fd5b50600880546001600160a01b0383166001600160a01b03199091161790556001919050565b3360009081526001602052604090205460ff1661196657600080fd5b6001600160a01b0382166000908152600a602052604090205460ff161561198c57600080fd5b6001600160a01b039091166000908152600b602090815260408220805460018101825590835291200155565b6001600160a01b0381166000908152600b6020908152604091829020805483518184028101840190945280845260609392830182828015611a1857602002820191906000526020600020905b815481526020019060010190808311611a04575b50505050509050919050565b601181815481106113e857600080fd5b600f8181548110611a4457600080fd5b906000526020600020016000915090508054611a5f90612825565b80601f0160208091040260200160405190810160405280929190818152602001828054611a8b90612825565b8015611ad85780601f10611aad57610100808354040283529160200191611ad8565b820191906000526020600020905b815481529060010190602001808311611abb57829003601f168201915b505050505081565b600e602052816000526040600020818154811061123c57600080fd5b600254610100900460ff161580611b225750336000908152600a602052604090205460ff165b80611b5d575060108181548110611b3b57611b3b6128a7565b90600052602060002090602091828204019190069054906101000a900460ff16155b15611b6757600080fd5b6005546001600160a01b031660005b600354811015611c6557816001600160a01b03166323b872dd3360038481548110611ba357611ba36128a7565b600091825260209091200154600480546001600160a01b039092169186908110611bcf57611bcf6128a7565b90600052602060002001546040518463ffffffff1660e01b8152600401611bf89392919061265d565b602060405180830381600087803b158015611c1257600080fd5b505af1158015611c26573d6000803e3d6000fd5b505050506040513d601f19601f82011682018060405250810190611c4a919061243e565b611c5357600080fd5b80611c5d81612860565b915050611b76565b50806001600160a01b03166323b872dd333060128681548110611c8a57611c8a6128a7565b90600052602060002001546040518463ffffffff1660e01b8152600401611cb39392919061265d565b602060405180830381600087803b158015611ccd57600080fd5b505af1158015611ce1573d6000803e3d6000fd5b505050506040513d601f19601f82011682018060405250810190611d05919061243e565b611d0e57600080fd5b50336000908152600b602090815260408220805460018101825590835291200155565b600080546001600160a01b03163314611d4957600080fd5b50600780546001600160a01b0383166001600160a01b031991821681179092556005805490911690911790556001919050565b600080546001600160a01b03163314611d9457600080fd5b6007546040516370a0823160e01b81523060048201526000916001600160a01b0316906370a082319060240160206040518083038186803b158015611dd857600080fd5b505afa158015611dec573d6000803e3d6000fd5b505050506040513d601f19601f82011682018060405250810190611e1091906124de565b11611e1a57600080fd5b6007546040516370a0823160e01b81523060048201526000916001600160a01b0316906370a082319060240160206040518083038186803b158015611e5e57600080fd5b505afa158015611e72573d6000803e3d6000fd5b505050506040513d601f19601f82011682018060405250810190611e9691906124de565b60075460005460405163a9059cbb60e01b81526001600160a01b03918216600482015260248101849052929350169063a9059cbb90604401611899565b600080546001600160a01b03163314611eeb57600080fd5b600f80546001810182556000919091528551611f2e917f8d1108e10bcb7c27dddfc02ed9d693a074039d026cf4ea4240b40f7d581ac80201906020880190612161565b505060108054600181810190925560208082047f1b6847dc741a1b0cd08d278845f9d819d87b734759afb55fe2de5cb82a9ae672018054871515601f94851661010090810a91820260ff9283021990931692909217909255601180548087019091559283047f31ecc21a745e3968a04e9570e4425bc18fa8019c68028196b546d1669c200c680180548815159490951690910a92830292909102199092161790556012805480830182556000919091527fbb8a6a4669ba250d26cd7a459eca9d215f8307e33aebe50379bc5a3617ec344401829055949350505050565b6000546001600160a01b0316331461202257600080fd5b6001600160a01b03811661203557600080fd5b600080546040516001600160a01b03808516939216917f8be0079c531659141344cd1fd0a4f28419497f9722a3daafe3b4186f6b6457e091a3600080546001600160a01b0319166001600160a01b0392909216919091179055565b6000546001600160a01b031633146120a757600080fd5b600280549115156101000261ff0019909216919091179055565b828054828255906000526020600020908101928215612116579160200282015b8281111561211657825182546001600160a01b0319166001600160a01b039091161782556020909201916001909101906120e1565b506121229291506121d4565b5090565b828054828255906000526020600020908101928215612116579160200282015b82811115612116578251825591602001919060010190612146565b82805461216d90612825565b90600052602060002090601f01602090048101928261218f5760008555612116565b82601f106121a857805160ff1916838001178555612116565b828001600101855582156121165791820182811115612116578251825591602001919060010190612146565b5b8082111561212257600081556001016121d5565b600082601f8301126121fa57600080fd5b8135602061220f61220a836127ea565b6127b9565b80838252828201915082860187848660051b890101111561222f57600080fd5b60005b8581101561224e57813584529284019290840190600101612232565b5090979650505050505050565b600082601f83011261226c57600080fd5b813567ffffffffffffffff811115612286576122866128bd565b612299601f8201601f19166020016127b9565b8181528460208386010111156122ae57600080fd5b816020850160208301376000918101602001919091529392505050565b6000602082840312156122dd57600080fd5b81356122e8816128d3565b9392505050565b6000806040838503121561230257600080fd5b823561230d816128d3565b946020939093013593505050565b6000806040838503121561232e57600080fd5b823567ffffffffffffffff8082111561234657600080fd5b818501915085601f83011261235a57600080fd5b8135602061236a61220a836127ea565b8083825282820191508286018a848660051b890101111561238a57600080fd5b600096505b848710156123b65780356123a2816128d3565b83526001969096019591830191830161238f565b50965050860135925050808211156123cd57600080fd5b506123da858286016121e9565b9150509250929050565b6000602082840312156123f657600080fd5b813567ffffffffffffffff81111561240d57600080fd5b612419848285016121e9565b949350505050565b60006020828403121561243357600080fd5b81356122e8816128eb565b60006020828403121561245057600080fd5b81516122e8816128eb565b6000806000806080858703121561247157600080fd5b843567ffffffffffffffff81111561248857600080fd5b6124948782880161225b565b94505060208501356124a5816128eb565b925060408501356124b5816128eb565b9396929550929360600135925050565b6000602082840312156124d757600080fd5b5035919050565b6000602082840312156124f057600080fd5b5051919050565b60008060006060848603121561250c57600080fd5b83359250602084013561251e816128d3565b929592945050506040919091013590565b600080600080600060a0868803121561254757600080fd5b85359450602086013567ffffffffffffffff81111561256557600080fd5b6125718882890161225b565b9450506040860135612582816128eb565b92506060860135612592816128eb565b949793965091946080013592915050565b600081518084526020808501945080840160005b838110156125d55781511515875295820195908201906001016125b7565b509495945050505050565b600081518084526020808501945080840160005b838110156125d5578151875295820195908201906001016125f4565b6000815180845260005b818110156126365760208185018101518683018201520161261a565b81811115612648576000602083870101525b50601f01601f19169290920160200192915050565b6001600160a01b039384168152919092166020820152604081019190915260600190565b6000608082016080835280875180835260a08501915060a08160051b86010192506020808a0160005b838110156126d857609f198887030185526126c6868351612610565b955093820193908201906001016126aa565b5050858403818701525050506126ee81876125a3565b9050828103604084015261270281866125a3565b9050828103606084015261271681856125e0565b979650505050505050565b6020815260006122e860208301846125e0565b60608152600061274760608301866125e0565b60208382038185015261275a82876125e0565b8481036040860152855180825282870193509082019060005b818110156127985784516001600160a01b031683529383019391830191600101612773565b509098975050505050505050565b6020815260006122e86020830184612610565b604051601f8201601f1916810167ffffffffffffffff811182821017156127e2576127e26128bd565b604052919050565b600067ffffffffffffffff821115612804576128046128bd565b5060051b60200190565b6000828210156128205761282061287b565b500390565b600181811c9082168061283957607f821691505b6020821081141561285a57634e487b7160e01b600052602260045260246000fd5b50919050565b60006000198214156128745761287461287b565b5060010190565b634e487b7160e01b600052601160045260246000fd5b634e487b7160e01b600052603160045260246000fd5b634e487b7160e01b600052603260045260246000fd5b634e487b7160e01b600052604160045260246000fd5b6001600160a01b03811681146128e857600080fd5b50565b80151581146128e857600080fdfea2646970667358221220f74dcc51198af1ca4f46825268078434e98d336f1bbeaa02bf997d769072facc64736f6c63430008070033",
    "sourcePath": "c:/Users/STC/Documents/GitHub/Crypto-Soccer-Testnet/contracts/Market 2.0/Inventario.sol",
    "compiler": {
        "name": "solc",
        "version": "0.8.7+commit.e28d00a7"
    },
    "functionHashes": {
        "ChangePrincipalToken(address)": "cc360058",
        "ChangeTokenOTRO(address)": "96ba5363",
        "FEE_CSC(uint256)": "209f2a66",
        "SellItemFromMarket(uint256,address,uint256)": "16c38cee",
        "SubItemfromMarket(address,uint256)": "17fecb4b",
        "WALLETS_FEE(uint256)": "6327463e",
        "addItem(string,bool,bool,uint256)": "f162bbed",
        "addItemToMarket(address,uint256)": "a72bce57",
        "admin(address)": "63a846f8",
        "adminWallet()": "36b19cd7",
        "almacen(address,uint256)": "1cfd9e3f",
        "baneado(address)": "cdba068c",
        "buyItemFromMarket(address,uint256)": "162db929",
        "buyItems()": "c0258191",
        "buyItemsGame(uint256)": "c850dd97",
        "comprable(uint256)": "517aa366",
        "editItem(uint256,string,bool,bool,uint256)": "26925c36",
        "imprimible(uint256)": "bc851f25",
        "items(uint256)": "bfb231d2",
        "largoInventario(address)": "c991c474",
        "largoItems()": "238393e4",
        "makeNewAdmin(address)": "69ed1e0a",
        "makeRemoveAdmin(address)": "70a0966b",
        "market(address,uint256)": "94756aa7",
        "market_price(address,uint256)": "c24a61b8",
        "market_token(address,uint256)": "55019f2c",
        "migracion()": "989b85ab",
        "migrado(address)": "2a906e15",
        "migrar(uint256[])": "8833ac45",
        "owner()": "8da5cb5b",
        "precio(uint256)": "48053bc5",
        "redimETH()": "2e9928d3",
        "redimOTRO()": "8929cbc5",
        "redimTokenPrincipal01()": "eb5b455a",
        "redimTokenPrincipal02(uint256)": "1140e85b",
        "sellItems()": "d2beb268",
        "token()": "fc0c546a",
        "transferOwnership(address)": "f2fde38b",
        "updateBuyItems(bool)": "f9de8c16",
        "updateWalletsFee(address[],uint256[])": "003fb087",
        "verInventario(address)": "aaa272a6",
        "verItemsMarket()": "1c7f2bc8",
        "verMarket(address)": "556cb7d1"
    },
    "gasEstimates": {
        "creation": {
            "codeDepositCost": "2108600",
            "executionCost": "infinite",
            "totalCost": "infinite"
        },
        "external": {
            "ChangePrincipalToken(address)": "51119",
            "ChangeTokenOTRO(address)": "26909",
            "FEE_CSC(uint256)": "4654",
            "SellItemFromMarket(uint256,address,uint256)": "infinite",
            "SubItemfromMarket(address,uint256)": "63012",
            "WALLETS_FEE(uint256)": "4703",
            "addItem(string,bool,bool,uint256)": "infinite",
            "addItemToMarket(address,uint256)": "51253",
            "admin(address)": "2636",
            "adminWallet()": "2427",
            "almacen(address,uint256)": "4795",
            "baneado(address)": "2658",
            "buyItemFromMarket(address,uint256)": "infinite",
            "buyItems()": "2476",
            "buyItemsGame(uint256)": "infinite",
            "comprable(uint256)": "6370",
            "editItem(uint256,string,bool,bool,uint256)": "infinite",
            "imprimible(uint256)": "6347",
            "items(uint256)": "infinite",
            "largoInventario(address)": "2609",
            "largoItems()": "2393",
            "makeNewAdmin(address)": "28091",
            "makeRemoveAdmin(address)": "28095",
            "market(address,uint256)": "4839",
            "market_price(address,uint256)": "4772",
            "market_token(address,uint256)": "4823",
            "migracion()": "2355",
            "migrado(address)": "2571",
            "migrar(uint256[])": "infinite",
            "owner()": "2427",
            "precio(uint256)": "4676",
            "redimETH()": "infinite",
            "redimOTRO()": "infinite",
            "redimTokenPrincipal01()": "infinite",
            "redimTokenPrincipal02(uint256)": "infinite",
            "sellItems()": "2365",
            "token()": "2491",
            "transferOwnership(address)": "30504",
            "updateBuyItems(bool)": "26809",
            "updateWalletsFee(address[],uint256[])": "infinite",
            "verInventario(address)": "infinite",
            "verItemsMarket()": "infinite",
            "verMarket(address)": "infinite"
        }
    }
}