{
    "contractName": "Market_V2",
    "abi": [
        {
            "inputs": [],
            "stateMutability": "nonpayable",
            "type": "constructor"
        },
        {
            "anonymous": false,
            "inputs": [
                {
                    "indexed": true,
                    "internalType": "address",
                    "name": "admin",
                    "type": "address"
                }
            ],
            "name": "AdminRemoved",
            "type": "event"
        },
        {
            "anonymous": false,
            "inputs": [
                {
                    "indexed": true,
                    "internalType": "address",
                    "name": "admin",
                    "type": "address"
                }
            ],
            "name": "NewAdmin",
            "type": "event"
        },
        {
            "anonymous": false,
            "inputs": [
                {
                    "indexed": true,
                    "internalType": "address",
                    "name": "previousOwner",
                    "type": "address"
                },
                {
                    "indexed": true,
                    "internalType": "address",
                    "name": "newOwner",
                    "type": "address"
                }
            ],
            "name": "OwnershipTransferred",
            "type": "event"
        },
        {
            "inputs": [
                {
                    "internalType": "address",
                    "name": "_tokenERC20",
                    "type": "address"
                }
            ],
            "name": "ChangePrincipalToken",
            "outputs": [
                {
                    "internalType": "bool",
                    "name": "",
                    "type": "bool"
                }
            ],
            "stateMutability": "nonpayable",
            "type": "function"
        },
        {
            "inputs": [
                {
                    "internalType": "address",
                    "name": "_tokenERC20",
                    "type": "address"
                }
            ],
            "name": "ChangeTokenOTRO",
            "outputs": [
                {
                    "internalType": "bool",
                    "name": "",
                    "type": "bool"
                }
            ],
            "stateMutability": "nonpayable",
            "type": "function"
        },
        {
            "inputs": [],
            "name": "FEE_CSC",
            "outputs": [
                {
                    "internalType": "uint256",
                    "name": "",
                    "type": "uint256"
                }
            ],
            "stateMutability": "view",
            "type": "function"
        },
        {
            "inputs": [],
            "name": "MAX_CSC",
            "outputs": [
                {
                    "internalType": "uint256",
                    "name": "",
                    "type": "uint256"
                }
            ],
            "stateMutability": "view",
            "type": "function"
        },
        {
            "inputs": [],
            "name": "MIN_CSC",
            "outputs": [
                {
                    "internalType": "uint256",
                    "name": "",
                    "type": "uint256"
                }
            ],
            "stateMutability": "view",
            "type": "function"
        },
        {
            "inputs": [],
            "name": "TIME_CLAIM",
            "outputs": [
                {
                    "internalType": "uint256",
                    "name": "",
                    "type": "uint256"
                }
            ],
            "stateMutability": "view",
            "type": "function"
        },
        {
            "inputs": [
                {
                    "internalType": "address",
                    "name": "",
                    "type": "address"
                }
            ],
            "name": "admin",
            "outputs": [
                {
                    "internalType": "bool",
                    "name": "",
                    "type": "bool"
                }
            ],
            "stateMutability": "view",
            "type": "function"
        },
        {
            "inputs": [],
            "name": "adminWallet",
            "outputs": [
                {
                    "internalType": "address",
                    "name": "",
                    "type": "address"
                }
            ],
            "stateMutability": "view",
            "type": "function"
        },
        {
            "inputs": [
                {
                    "internalType": "uint256",
                    "name": "_value",
                    "type": "uint256"
                },
                {
                    "internalType": "address",
                    "name": "_user",
                    "type": "address"
                }
            ],
            "name": "asignarCoinsTo",
            "outputs": [
                {
                    "internalType": "bool",
                    "name": "",
                    "type": "bool"
                }
            ],
            "stateMutability": "nonpayable",
            "type": "function"
        },
        {
            "inputs": [
                {
                    "internalType": "uint256",
                    "name": "_value",
                    "type": "uint256"
                }
            ],
            "name": "buyCoins",
            "outputs": [
                {
                    "internalType": "bool",
                    "name": "",
                    "type": "bool"
                }
            ],
            "stateMutability": "nonpayable",
            "type": "function"
        },
        {
            "inputs": [
                {
                    "internalType": "uint256",
                    "name": "_value",
                    "type": "uint256"
                },
                {
                    "internalType": "address",
                    "name": "_user",
                    "type": "address"
                }
            ],
            "name": "gastarCoinsfrom",
            "outputs": [
                {
                    "internalType": "bool",
                    "name": "",
                    "type": "bool"
                }
            ],
            "stateMutability": "nonpayable",
            "type": "function"
        },
        {
            "inputs": [],
            "name": "ingresos",
            "outputs": [
                {
                    "internalType": "uint256",
                    "name": "",
                    "type": "uint256"
                }
            ],
            "stateMutability": "view",
            "type": "function"
        },
        {
            "inputs": [
                {
                    "internalType": "address",
                    "name": "",
                    "type": "address"
                }
            ],
            "name": "investors",
            "outputs": [
                {
                    "internalType": "bool",
                    "name": "baneado",
                    "type": "bool"
                },
                {
                    "internalType": "uint256",
                    "name": "balance",
                    "type": "uint256"
                },
                {
                    "internalType": "uint256",
                    "name": "payAt",
                    "type": "uint256"
                }
            ],
            "stateMutability": "view",
            "type": "function"
        },
        {
            "inputs": [
                {
                    "internalType": "address payable",
                    "name": "_newadmin",
                    "type": "address"
                }
            ],
            "name": "makeNewAdmin",
            "outputs": [],
            "stateMutability": "nonpayable",
            "type": "function"
        },
        {
            "inputs": [
                {
                    "internalType": "address payable",
                    "name": "_oldadmin",
                    "type": "address"
                }
            ],
            "name": "makeRemoveAdmin",
            "outputs": [],
            "stateMutability": "nonpayable",
            "type": "function"
        },
        {
            "inputs": [],
            "name": "owner",
            "outputs": [
                {
                    "internalType": "address payable",
                    "name": "",
                    "type": "address"
                }
            ],
            "stateMutability": "view",
            "type": "function"
        },
        {
            "inputs": [],
            "name": "redimBNB",
            "outputs": [
                {
                    "internalType": "uint256",
                    "name": "",
                    "type": "uint256"
                }
            ],
            "stateMutability": "nonpayable",
            "type": "function"
        },
        {
            "inputs": [],
            "name": "redimOTRO",
            "outputs": [
                {
                    "internalType": "uint256",
                    "name": "",
                    "type": "uint256"
                }
            ],
            "stateMutability": "nonpayable",
            "type": "function"
        },
        {
            "inputs": [],
            "name": "redimTokenPrincipal",
            "outputs": [
                {
                    "internalType": "uint256",
                    "name": "",
                    "type": "uint256"
                }
            ],
            "stateMutability": "nonpayable",
            "type": "function"
        },
        {
            "inputs": [
                {
                    "internalType": "uint256",
                    "name": "_value",
                    "type": "uint256"
                }
            ],
            "name": "redimTokenPrincipal02",
            "outputs": [
                {
                    "internalType": "uint256",
                    "name": "",
                    "type": "uint256"
                }
            ],
            "stateMutability": "nonpayable",
            "type": "function"
        },
        {
            "inputs": [],
            "name": "retiros",
            "outputs": [
                {
                    "internalType": "uint256",
                    "name": "",
                    "type": "uint256"
                }
            ],
            "stateMutability": "view",
            "type": "function"
        },
        {
            "inputs": [
                {
                    "internalType": "uint256",
                    "name": "_value",
                    "type": "uint256"
                }
            ],
            "name": "sellCoins",
            "outputs": [
                {
                    "internalType": "bool",
                    "name": "",
                    "type": "bool"
                }
            ],
            "stateMutability": "nonpayable",
            "type": "function"
        },
        {
            "inputs": [],
            "name": "token",
            "outputs": [
                {
                    "internalType": "address",
                    "name": "",
                    "type": "address"
                }
            ],
            "stateMutability": "view",
            "type": "function"
        },
        {
            "inputs": [
                {
                    "internalType": "address payable",
                    "name": "newOwner",
                    "type": "address"
                }
            ],
            "name": "transferOwnership",
            "outputs": [],
            "stateMutability": "nonpayable",
            "type": "function"
        },
        {
            "inputs": [
                {
                    "internalType": "uint256",
                    "name": "_fee",
                    "type": "uint256"
                }
            ],
            "name": "updateFee",
            "outputs": [],
            "stateMutability": "nonpayable",
            "type": "function"
        },
        {
            "inputs": [
                {
                    "internalType": "uint256",
                    "name": "_min",
                    "type": "uint256"
                },
                {
                    "internalType": "uint256",
                    "name": "_max",
                    "type": "uint256"
                }
            ],
            "name": "updateMinMax",
            "outputs": [],
            "stateMutability": "nonpayable",
            "type": "function"
        },
        {
            "inputs": [
                {
                    "internalType": "uint256",
                    "name": "_time",
                    "type": "uint256"
                }
            ],
            "name": "updateTimeToClaim",
            "outputs": [],
            "stateMutability": "nonpayable",
            "type": "function"
        }
    ],
    "bytecode": "6080604052600280546001600160a01b031990811673f0fb4a5acf1b1126a991ee189408b112028d7a63908117909255600380548216724769ef6aec57efbf56c24d0a04fe619fbb6143179055681b1ae4d6e2ef50000060045569021e19e0c9bab240000060055568056bc75e2d6310000060065562093a806007556008805482168317905560098054909116909117905534801561009d57600080fd5b50600080546001600160a01b0319163390811782558152600160208190526040909120805460ff19169091179055610fa4806100da6000396000f3fe608060405234801561001057600080fd5b50600436106101a95760003560e01c80638929cbc5116100f9578063d2a17c7b11610097578063f2fde38b11610071578063f2fde38b1461039b578063fc0c546a146103ae578063fd14d598146103c1578063fe468196146103c957600080fd5b8063d2a17c7b14610380578063d47edbaa14610389578063d60fd9b91461039257600080fd5b806391eb34e0116100d357806391eb34e01461033e57806396ba536314610347578063cac885d81461035a578063cc3600581461036d57600080fd5b80638929cbc5146103105780638da5cb5b146103185780639012c4a81461032b57600080fd5b806351a4cd731161016657806369ed1e0a1161014057806369ed1e0a146102915780636f7bc9be146102a457806370a0966b146102f45780637b9719f21461030757600080fd5b806351a4cd7314610248578063571c94d71461025b57806363a846f81461026e57600080fd5b8063035092d9146101ae578063089a0cc5146101d65780631140e85b146101ed578063297026781461020057806336b19cd7146102085780633bbd391e14610233575b600080fd5b6101c16101bc366004610ebf565b6103dc565b60405190151581526020015b60405180910390f35b6101df60065481565b6040519081526020016101cd565b6101df6101fb366004610e8d565b610450565b6101df61057d565b60035461021b906001600160a01b031681565b6040516001600160a01b0390911681526020016101cd565b610246610241366004610eef565b610728565b005b6101c1610256366004610e8d565b61074a565b6101c1610269366004610ebf565b6108cd565b6101c161027c366004610e4e565b60016020526000908152604090205460ff1681565b61024661029f366004610e4e565b610924565b6102d76102b2366004610e4e565b600a6020526000908152604090208054600182015460029092015460ff909116919083565b6040805193151584526020840192909252908201526060016101cd565b610246610302366004610e4e565b6109a9565b6101df600c5481565b6101df610a28565b60005461021b906001600160a01b031681565b610246610339366004610e8d565b610b7f565b6101df60045481565b6101c1610355366004610e4e565b610b9b565b610246610368366004610e8d565b610bd8565b6101c161037b366004610e4e565b610bf4565b6101df600b5481565b6101df60055481565b6101df60075481565b6102466103a9366004610e4e565b610c3f565b60025461021b906001600160a01b031681565b6101df610cc4565b6101c16103d7366004610e8d565b610d2a565b3360009081526001602052604081205460ff166103f857600080fd5b6001600160a01b0382166000908152600a60205260409020805460ff16806104235750806001015484115b1561042d57600080fd5b838160010160008282546104419190610f29565b90915550600195945050505050565b600080546001600160a01b0316331461046857600080fd5b6008546040516370a0823160e01b815230600482015283916001600160a01b0316906370a082319060240160206040518083038186803b1580156104ab57600080fd5b505afa1580156104bf573d6000803e3d6000fd5b505050506040513d601f19601f820116820180604052508101906104e39190610ea6565b10156104ee57600080fd5b60085460005460405163a9059cbb60e01b81526001600160a01b0391821660048201526024810185905291169063a9059cbb90604401602060405180830381600087803b15801561053e57600080fd5b505af1158015610552573d6000803e3d6000fd5b505050506040513d601f19601f820116820180604052508101906105769190610e6b565b5090919050565b600080546001600160a01b0316331461059557600080fd5b6008546040516370a0823160e01b81523060048201526000916001600160a01b0316906370a082319060240160206040518083038186803b1580156105d957600080fd5b505afa1580156105ed573d6000803e3d6000fd5b505050506040513d601f19601f820116820180604052508101906106119190610ea6565b1161061b57600080fd5b6008546040516370a0823160e01b81523060048201526000916001600160a01b0316906370a082319060240160206040518083038186803b15801561065f57600080fd5b505afa158015610673573d6000803e3d6000fd5b505050506040513d601f19601f820116820180604052508101906106979190610ea6565b60085460005460405163a9059cbb60e01b81526001600160a01b03918216600482015260248101849052929350169063a9059cbb906044015b602060405180830381600087803b1580156106ea57600080fd5b505af11580156106fe573d6000803e3d6000fd5b505050506040513d601f19601f820116820180604052508101906107229190610e6b565b50905090565b6000546001600160a01b0316331461073f57600080fd5b600491909155600555565b600060045482101561075b57600080fd5b60055482111561076a57600080fd5b336000908152600a60205260409020600754600282015461078a91610e08565b42111561079657600080fd5b805460ff16156107a557600080fd5b80600101548311156107b657600080fd5b600654156107e05760006107d560065485610e2b90919063ffffffff16565b10156107e057600080fd5b6008546006546001600160a01b039091169063a9059cbb903390610805908790610e2b565b6040516001600160e01b031960e085901b1681526001600160a01b0390921660048301526024820152604401602060405180830381600087803b15801561084b57600080fd5b505af115801561085f573d6000803e3d6000fd5b505050506040513d601f19601f820116820180604052508101906108839190610e6b565b61088c57600080fd5b828160010160008282546108a09190610f29565b9250508190555082600c60008282546108b99190610f11565b909155505042600290910155506001919050565b3360009081526001602052604081205460ff166108e957600080fd5b6001600160a01b0382166000908152600a60205260409020805460ff161561091057600080fd5b838160010160008282546104419190610f11565b6000546001600160a01b0316331461093b57600080fd5b6001600160a01b03811661094e57600080fd5b6040516001600160a01b038216907f71614071b88dee5e0b2ae578a9dd7b2ebbe9ae832ba419dc0242cd065a290b6c90600090a26001600160a01b03166000908152600160208190526040909120805460ff19169091179055565b6000546001600160a01b031633146109c057600080fd5b6001600160a01b0381166109d357600080fd5b6040516001600160a01b038216907fa3b62bc36326052d97ea62d63c3d60308ed4c3ea8ac079dd8499f1e9c4f80c0f90600090a26001600160a01b03166000908152600160205260409020805460ff19169055565b600080546001600160a01b03163314610a4057600080fd5b6009546040516370a0823160e01b81523060048201526000916001600160a01b0316906370a082319060240160206040518083038186803b158015610a8457600080fd5b505afa158015610a98573d6000803e3d6000fd5b505050506040513d601f19601f82011682018060405250810190610abc9190610ea6565b11610ac657600080fd5b6009546040516370a0823160e01b81523060048201526000916001600160a01b0316906370a082319060240160206040518083038186803b158015610b0a57600080fd5b505afa158015610b1e573d6000803e3d6000fd5b505050506040513d601f19601f82011682018060405250810190610b429190610ea6565b60095460005460405163a9059cbb60e01b81526001600160a01b03918216600482015260248101849052929350169063a9059cbb906044016106d0565b6000546001600160a01b03163314610b9657600080fd5b600655565b600080546001600160a01b03163314610bb357600080fd5b50600980546001600160a01b0383166001600160a01b03199091161790556001919050565b6000546001600160a01b03163314610bef57600080fd5b600755565b600080546001600160a01b03163314610c0c57600080fd5b50600880546001600160a01b0383166001600160a01b031991821681179092556002805490911690911790556001919050565b6000546001600160a01b03163314610c5657600080fd5b6001600160a01b038116610c6957600080fd5b600080546040516001600160a01b03808516939216917f8be0079c531659141344cd1fd0a4f28419497f9722a3daafe3b4186f6b6457e091a3600080546001600160a01b0319166001600160a01b0392909216919091179055565b600080546001600160a01b03163314610cdc57600080fd5b60004711610ce957600080fd5b600080546040516001600160a01b03909116914780156108fc02929091818181858888f19350505050158015610d23573d6000803e3d6000fd5b5047905090565b336000908152600a60205260408120805460ff1615610d4857600080fd5b6008546040516323b872dd60e01b8152336004820152306024820152604481018590526001600160a01b03909116906323b872dd90606401602060405180830381600087803b158015610d9a57600080fd5b505af1158015610dae573d6000803e3d6000fd5b505050506040513d601f19601f82011682018060405250810190610dd29190610e6b565b610ddb57600080fd5b6001810154610dea9084610e08565b6001820155600b54610dfc9084610e08565b600b5550600192915050565b600080610e158385610f11565b905083811015610e2457600080fd5b9392505050565b600082821115610e3a57600080fd5b6000610e468385610f29565b949350505050565b600060208284031215610e6057600080fd5b8135610e2481610f56565b600060208284031215610e7d57600080fd5b81518015158114610e2457600080fd5b600060208284031215610e9f57600080fd5b5035919050565b600060208284031215610eb857600080fd5b5051919050565b60008060408385031215610ed257600080fd5b823591506020830135610ee481610f56565b809150509250929050565b60008060408385031215610f0257600080fd5b50508035926020909101359150565b60008219821115610f2457610f24610f40565b500190565b600082821015610f3b57610f3b610f40565b500390565b634e487b7160e01b600052601160045260246000fd5b6001600160a01b0381168114610f6b57600080fd5b5056fea2646970667358221220bb85b00c3a324c01986e7864e52ae0c4e8bab45070cc6a0f9258a93abcdce9c064736f6c63430008070033",
    "sourcePath": "c:/Users/STC/Documents/GitHub/Crypto-Soccer-Testnet/contracts/Market 2.0/Exchange.sol",
    "compiler": {
        "name": "solc",
        "version": "0.8.7+commit.e28d00a7"
    },
    "functionHashes": {
        "ChangePrincipalToken(address)": "cc360058",
        "ChangeTokenOTRO(address)": "96ba5363",
        "FEE_CSC()": "089a0cc5",
        "MAX_CSC()": "d47edbaa",
        "MIN_CSC()": "91eb34e0",
        "TIME_CLAIM()": "d60fd9b9",
        "admin(address)": "63a846f8",
        "adminWallet()": "36b19cd7",
        "asignarCoinsTo(uint256,address)": "571c94d7",
        "buyCoins(uint256)": "fe468196",
        "gastarCoinsfrom(uint256,address)": "035092d9",
        "ingresos()": "d2a17c7b",
        "investors(address)": "6f7bc9be",
        "makeNewAdmin(address)": "69ed1e0a",
        "makeRemoveAdmin(address)": "70a0966b",
        "owner()": "8da5cb5b",
        "redimBNB()": "fd14d598",
        "redimOTRO()": "8929cbc5",
        "redimTokenPrincipal()": "29702678",
        "redimTokenPrincipal02(uint256)": "1140e85b",
        "retiros()": "7b9719f2",
        "sellCoins(uint256)": "51a4cd73",
        "token()": "fc0c546a",
        "transferOwnership(address)": "f2fde38b",
        "updateFee(uint256)": "9012c4a8",
        "updateMinMax(uint256,uint256)": "3bbd391e",
        "updateTimeToClaim(uint256)": "cac885d8"
    },
    "gasEstimates": {
        "creation": {
            "codeDepositCost": "800800",
            "executionCost": "234719",
            "totalCost": "1035519"
        },
        "external": {
            "ChangePrincipalToken(address)": "51108",
            "ChangeTokenOTRO(address)": "26831",
            "FEE_CSC()": "2341",
            "MAX_CSC()": "2362",
            "MIN_CSC()": "2340",
            "TIME_CLAIM()": "2384",
            "admin(address)": "2604",
            "adminWallet()": "2449",
            "asignarCoinsTo(uint256,address)": "29172",
            "buyCoins(uint256)": "infinite",
            "gastarCoinsfrom(uint256,address)": "31259",
            "ingresos()": "2340",
            "investors(address)": "6870",
            "makeNewAdmin(address)": "28003",
            "makeRemoveAdmin(address)": "28029",
            "owner()": "2405",
            "redimBNB()": "infinite",
            "redimOTRO()": "infinite",
            "redimTokenPrincipal()": "infinite",
            "redimTokenPrincipal02(uint256)": "infinite",
            "retiros()": "2406",
            "sellCoins(uint256)": "infinite",
            "token()": "2403",
            "transferOwnership(address)": "30438",
            "updateFee(uint256)": "24554",
            "updateMinMax(uint256,uint256)": "46733",
            "updateTimeToClaim(uint256)": "24553"
        }
    }
}