{
    "contractName": "Market",
    "abi": [
        {
            "inputs": [],
            "stateMutability": "nonpayable",
            "type": "constructor"
        },
        {
            "anonymous": false,
            "inputs": [
                {
                    "indexed": true,
                    "internalType": "address",
                    "name": "admin",
                    "type": "address"
                }
            ],
            "name": "AdminRemoved",
            "type": "event"
        },
        {
            "anonymous": false,
            "inputs": [
                {
                    "indexed": true,
                    "internalType": "address",
                    "name": "admin",
                    "type": "address"
                }
            ],
            "name": "NewAdmin",
            "type": "event"
        },
        {
            "anonymous": false,
            "inputs": [
                {
                    "indexed": true,
                    "internalType": "address",
                    "name": "previousOwner",
                    "type": "address"
                },
                {
                    "indexed": true,
                    "internalType": "address",
                    "name": "newOwner",
                    "type": "address"
                }
            ],
            "name": "OwnershipTransferred",
            "type": "event"
        },
        {
            "inputs": [
                {
                    "internalType": "address",
                    "name": "_tokenERC20",
                    "type": "address"
                }
            ],
            "name": "ChangePrincipalToken",
            "outputs": [
                {
                    "internalType": "bool",
                    "name": "",
                    "type": "bool"
                }
            ],
            "stateMutability": "nonpayable",
            "type": "function"
        },
        {
            "inputs": [
                {
                    "internalType": "address",
                    "name": "_tokenERC20",
                    "type": "address"
                }
            ],
            "name": "ChangeTokenOTRO",
            "outputs": [
                {
                    "internalType": "bool",
                    "name": "",
                    "type": "bool"
                }
            ],
            "stateMutability": "nonpayable",
            "type": "function"
        },
        {
            "inputs": [
                {
                    "internalType": "address",
                    "name": "",
                    "type": "address"
                },
                {
                    "internalType": "uint256",
                    "name": "",
                    "type": "uint256"
                }
            ],
            "name": "IDNft",
            "outputs": [
                {
                    "internalType": "uint256",
                    "name": "",
                    "type": "uint256"
                }
            ],
            "stateMutability": "view",
            "type": "function"
        },
        {
            "inputs": [],
            "name": "MAX_CSC",
            "outputs": [
                {
                    "internalType": "uint256",
                    "name": "",
                    "type": "uint256"
                }
            ],
            "stateMutability": "view",
            "type": "function"
        },
        {
            "inputs": [],
            "name": "MIN_CSC",
            "outputs": [
                {
                    "internalType": "uint256",
                    "name": "",
                    "type": "uint256"
                }
            ],
            "stateMutability": "view",
            "type": "function"
        },
        {
            "inputs": [
                {
                    "internalType": "uint256",
                    "name": "",
                    "type": "uint256"
                }
            ],
            "name": "PRINT_NFT_CSC",
            "outputs": [
                {
                    "internalType": "uint256",
                    "name": "",
                    "type": "uint256"
                }
            ],
            "stateMutability": "view",
            "type": "function"
        },
        {
            "inputs": [],
            "name": "TIME_CLAIM",
            "outputs": [
                {
                    "internalType": "uint256",
                    "name": "",
                    "type": "uint256"
                }
            ],
            "stateMutability": "view",
            "type": "function"
        },
        {
            "inputs": [
                {
                    "internalType": "uint256",
                    "name": "",
                    "type": "uint256"
                }
            ],
            "name": "WALLETS_PRINT_NFT_CSC",
            "outputs": [
                {
                    "internalType": "address",
                    "name": "",
                    "type": "address"
                }
            ],
            "stateMutability": "view",
            "type": "function"
        },
        {
            "inputs": [
                {
                    "internalType": "string",
                    "name": "_nombre",
                    "type": "string"
                },
                {
                    "internalType": "string",
                    "name": "_tipo",
                    "type": "string"
                },
                {
                    "internalType": "uint256",
                    "name": "_value",
                    "type": "uint256"
                },
                {
                    "internalType": "bool",
                    "name": "_acumulable",
                    "type": "bool"
                },
                {
                    "internalType": "bool",
                    "name": "_ilimitado",
                    "type": "bool"
                },
                {
                    "internalType": "uint256",
                    "name": "_cantidad",
                    "type": "uint256"
                }
            ],
            "name": "addItem",
            "outputs": [
                {
                    "internalType": "bool",
                    "name": "",
                    "type": "bool"
                }
            ],
            "stateMutability": "nonpayable",
            "type": "function"
        },
        {
            "inputs": [
                {
                    "internalType": "address",
                    "name": "",
                    "type": "address"
                }
            ],
            "name": "admin",
            "outputs": [
                {
                    "internalType": "bool",
                    "name": "",
                    "type": "bool"
                }
            ],
            "stateMutability": "view",
            "type": "function"
        },
        {
            "inputs": [],
            "name": "adminWallet",
            "outputs": [
                {
                    "internalType": "address",
                    "name": "",
                    "type": "address"
                }
            ],
            "stateMutability": "view",
            "type": "function"
        },
        {
            "inputs": [
                {
                    "internalType": "uint256",
                    "name": "_value",
                    "type": "uint256"
                },
                {
                    "internalType": "address",
                    "name": "_user",
                    "type": "address"
                }
            ],
            "name": "asignarCoinsTo",
            "outputs": [
                {
                    "internalType": "bool",
                    "name": "",
                    "type": "bool"
                }
            ],
            "stateMutability": "nonpayable",
            "type": "function"
        },
        {
            "inputs": [
                {
                    "internalType": "uint256",
                    "name": "_value",
                    "type": "uint256"
                }
            ],
            "name": "buyCoins",
            "outputs": [
                {
                    "internalType": "bool",
                    "name": "",
                    "type": "bool"
                }
            ],
            "stateMutability": "nonpayable",
            "type": "function"
        },
        {
            "inputs": [
                {
                    "internalType": "uint256",
                    "name": "_id",
                    "type": "uint256"
                },
                {
                    "internalType": "string",
                    "name": "_nombre",
                    "type": "string"
                },
                {
                    "internalType": "string",
                    "name": "_tipo",
                    "type": "string"
                },
                {
                    "internalType": "uint256",
                    "name": "_value",
                    "type": "uint256"
                },
                {
                    "internalType": "bool",
                    "name": "_acumulable",
                    "type": "bool"
                },
                {
                    "internalType": "bool",
                    "name": "_ilimitado",
                    "type": "bool"
                },
                {
                    "internalType": "uint256",
                    "name": "_cantidad",
                    "type": "uint256"
                }
            ],
            "name": "editItem",
            "outputs": [
                {
                    "internalType": "bool",
                    "name": "",
                    "type": "bool"
                }
            ],
            "stateMutability": "nonpayable",
            "type": "function"
        },
        {
            "inputs": [
                {
                    "internalType": "uint256",
                    "name": "_value",
                    "type": "uint256"
                },
                {
                    "internalType": "address",
                    "name": "_user",
                    "type": "address"
                }
            ],
            "name": "gastarCoinsfrom",
            "outputs": [
                {
                    "internalType": "bool",
                    "name": "",
                    "type": "bool"
                }
            ],
            "stateMutability": "nonpayable",
            "type": "function"
        },
        {
            "inputs": [
                {
                    "internalType": "address",
                    "name": "",
                    "type": "address"
                }
            ],
            "name": "investors",
            "outputs": [
                {
                    "internalType": "bool",
                    "name": "baneado",
                    "type": "bool"
                },
                {
                    "internalType": "uint256",
                    "name": "balance",
                    "type": "uint256"
                },
                {
                    "internalType": "uint256",
                    "name": "payAt",
                    "type": "uint256"
                },
                {
                    "internalType": "uint256",
                    "name": "almacen",
                    "type": "uint256"
                },
                {
                    "internalType": "uint256",
                    "name": "printItems",
                    "type": "uint256"
                }
            ],
            "stateMutability": "view",
            "type": "function"
        },
        {
            "inputs": [
                {
                    "internalType": "uint256",
                    "name": "",
                    "type": "uint256"
                }
            ],
            "name": "items",
            "outputs": [
                {
                    "internalType": "string",
                    "name": "nombre",
                    "type": "string"
                },
                {
                    "internalType": "string",
                    "name": "tipo",
                    "type": "string"
                },
                {
                    "internalType": "uint256",
                    "name": "valor",
                    "type": "uint256"
                },
                {
                    "internalType": "bool",
                    "name": "acumulable",
                    "type": "bool"
                },
                {
                    "internalType": "bool",
                    "name": "ilimitado",
                    "type": "bool"
                },
                {
                    "internalType": "uint256",
                    "name": "cantidad",
                    "type": "uint256"
                }
            ],
            "stateMutability": "view",
            "type": "function"
        },
        {
            "inputs": [
                {
                    "internalType": "address",
                    "name": "_user",
                    "type": "address"
                }
            ],
            "name": "largoInventario",
            "outputs": [
                {
                    "internalType": "uint256",
                    "name": "",
                    "type": "uint256"
                }
            ],
            "stateMutability": "view",
            "type": "function"
        },
        {
            "inputs": [],
            "name": "largoItems",
            "outputs": [
                {
                    "internalType": "uint256",
                    "name": "",
                    "type": "uint256"
                }
            ],
            "stateMutability": "view",
            "type": "function"
        },
        {
            "inputs": [
                {
                    "internalType": "address payable",
                    "name": "_newadmin",
                    "type": "address"
                }
            ],
            "name": "makeNewAdmin",
            "outputs": [],
            "stateMutability": "nonpayable",
            "type": "function"
        },
        {
            "inputs": [
                {
                    "internalType": "address payable",
                    "name": "_oldadmin",
                    "type": "address"
                }
            ],
            "name": "makeRemoveAdmin",
            "outputs": [],
            "stateMutability": "nonpayable",
            "type": "function"
        },
        {
            "inputs": [],
            "name": "owner",
            "outputs": [
                {
                    "internalType": "address payable",
                    "name": "",
                    "type": "address"
                }
            ],
            "stateMutability": "view",
            "type": "function"
        },
        {
            "inputs": [
                {
                    "internalType": "address",
                    "name": "_user",
                    "type": "address"
                },
                {
                    "internalType": "string",
                    "name": "_metadata",
                    "type": "string"
                }
            ],
            "name": "printItem",
            "outputs": [
                {
                    "internalType": "bool",
                    "name": "",
                    "type": "bool"
                }
            ],
            "stateMutability": "nonpayable",
            "type": "function"
        },
        {
            "inputs": [],
            "name": "printNfts",
            "outputs": [
                {
                    "internalType": "bool",
                    "name": "",
                    "type": "bool"
                }
            ],
            "stateMutability": "view",
            "type": "function"
        },
        {
            "inputs": [],
            "name": "redimETH",
            "outputs": [
                {
                    "internalType": "uint256",
                    "name": "",
                    "type": "uint256"
                }
            ],
            "stateMutability": "nonpayable",
            "type": "function"
        },
        {
            "inputs": [],
            "name": "redimOTRO",
            "outputs": [
                {
                    "internalType": "uint256",
                    "name": "",
                    "type": "uint256"
                }
            ],
            "stateMutability": "nonpayable",
            "type": "function"
        },
        {
            "inputs": [],
            "name": "redimTokenPrincipal01",
            "outputs": [
                {
                    "internalType": "uint256",
                    "name": "",
                    "type": "uint256"
                }
            ],
            "stateMutability": "nonpayable",
            "type": "function"
        },
        {
            "inputs": [
                {
                    "internalType": "uint256",
                    "name": "_value",
                    "type": "uint256"
                }
            ],
            "name": "redimTokenPrincipal02",
            "outputs": [
                {
                    "internalType": "uint256",
                    "name": "",
                    "type": "uint256"
                }
            ],
            "stateMutability": "nonpayable",
            "type": "function"
        },
        {
            "inputs": [
                {
                    "internalType": "uint256",
                    "name": "_value",
                    "type": "uint256"
                }
            ],
            "name": "sellCoins",
            "outputs": [
                {
                    "internalType": "bool",
                    "name": "",
                    "type": "bool"
                }
            ],
            "stateMutability": "nonpayable",
            "type": "function"
        },
        {
            "inputs": [],
            "name": "token",
            "outputs": [
                {
                    "internalType": "address",
                    "name": "",
                    "type": "address"
                }
            ],
            "stateMutability": "view",
            "type": "function"
        },
        {
            "inputs": [],
            "name": "tokenTRC721",
            "outputs": [
                {
                    "internalType": "address",
                    "name": "",
                    "type": "address"
                }
            ],
            "stateMutability": "view",
            "type": "function"
        },
        {
            "inputs": [
                {
                    "internalType": "address payable",
                    "name": "newOwner",
                    "type": "address"
                }
            ],
            "name": "transferOwnership",
            "outputs": [],
            "stateMutability": "nonpayable",
            "type": "function"
        },
        {
            "inputs": [
                {
                    "internalType": "address",
                    "name": "_market",
                    "type": "address"
                }
            ],
            "name": "updateMarketV1",
            "outputs": [],
            "stateMutability": "nonpayable",
            "type": "function"
        },
        {
            "inputs": [
                {
                    "internalType": "uint256",
                    "name": "_min",
                    "type": "uint256"
                },
                {
                    "internalType": "uint256",
                    "name": "_max",
                    "type": "uint256"
                }
            ],
            "name": "updateMinMax",
            "outputs": [],
            "stateMutability": "nonpayable",
            "type": "function"
        },
        {
            "inputs": [
                {
                    "internalType": "bool",
                    "name": "_truefalse",
                    "type": "bool"
                }
            ],
            "name": "updatePrintNfts",
            "outputs": [],
            "stateMutability": "nonpayable",
            "type": "function"
        },
        {
            "inputs": [
                {
                    "internalType": "uint256",
                    "name": "_time",
                    "type": "uint256"
                }
            ],
            "name": "updateTimeClaim",
            "outputs": [],
            "stateMutability": "nonpayable",
            "type": "function"
        },
        {
            "inputs": [
                {
                    "internalType": "address[]",
                    "name": "_wallets",
                    "type": "address[]"
                },
                {
                    "internalType": "uint256[]",
                    "name": "_valores",
                    "type": "uint256[]"
                }
            ],
            "name": "updateWalletsPrints",
            "outputs": [],
            "stateMutability": "nonpayable",
            "type": "function"
        },
        {
            "inputs": [],
            "name": "ventaPublica",
            "outputs": [
                {
                    "internalType": "uint256",
                    "name": "",
                    "type": "uint256"
                }
            ],
            "stateMutability": "view",
            "type": "function"
        }
    ],
    "bytecode": "600280546001600160a81b0319167401f0218bbd50ddf065b7a43862fd9e27ee1925c05017905560e0604052730c4c6519e8b6e4d9c99b09a3cda475638c930b00608090815261dead60a052724769ef6aec57efbf56c24d0a04fe619fbb614360c05262000071906003908162000c96565b5060408051606081018252681b1ae4d6e2ef5000008082526020820181905291810191909152620000a790600490600362000d00565b50600580546001600160a01b031990811673f0fb4a5acf1b1126a991ee189408b112028d7a63908117909255600680548216724769ef6aec57efbf56c24d0a04fe619fbb614317905563617972f7600755681b1ae4d6e2ef50000060085569021e19e0c9bab240000060095562093a80600a55600b8054821673ff7009ef7ef85447f6a5b3f835c81add60a321c9179055600254600c805483166001600160a01b0392909216919091179055600d8054821683179055600e805490911690911790553480156200017657600080fd5b50600080546001600160a01b0319163390811782558152600160208181526040808420805460ff191684179055805161010081018252601460c082019081527f74312d6272617a696c2d6c6567656e646172696f00000000000000000000000060e0830152815281518083018352600a8152696c6567656e646172696f60b01b81850152818401526843c33c19375648000091810191909152606081018490526080810184905260a0810184905260118054938401815590935282518051600590930260008051602062002ec283398151915201926200025a928492019062000d49565b50602082810151805162000275926001850192019062000d49565b50604082810151600283015560608084015160038401805460808088015161ffff1990921693151561ff0019169390931761010091151582021790915560a09586015160049095019490945582519384018352601760c085019081527f74322d617267656e74696e612d6c6567656e646172696f00000000000000000060e0860152845282518084018452600a8152696c6567656e646172696f60b01b602082810191909152808601919091526843c33c193756480000938501939093526000918401829052830181905292820183905260118054600181018255935281518051929360008051602062002ec2833981519152600590910201926200037e928492019062000d49565b50602082810151805162000399926001850192019062000d49565b50604082810151600283015560608084015160038401805460808088015161ffff1990921693151561ff0019169390931761010091151582021790915560a09586015160049095019490945582519384018352601660c085019081527f74332d616c656d616e69612d6c6567656e646172696f0000000000000000000060e0860152845282518084018452600a8152696c6567656e646172696f60b01b602082810191909152808601919091526843c33c193756480000938501939093526000918401829052830181905292820183905260118054600181018255935281518051929360008051602062002ec283398151915260059091020192620004a2928492019062000d49565b506020828101518051620004bd926001850192019062000d49565b50604082810151600283015560608084015160038401805460808088015161ffff1990921693151561ff0019169390931761010091151582021790915560a09586015160049095019490945582519384018352600e60c085019081526d74342d6a61706f6e2d657069636f60901b60e0860152845282518084018452600580825264657069636f60d81b60208381019190915280870192909252682f6f10780d22cc000094860194909452600092850183905290840182905293830181905260118054600181018255915282518051939460008051602062002ec2833981519152929093029190910192620005b6928492019062000d49565b506020828101518051620005d1926001850192019062000d49565b50604082810151600283015560608084015160038401805460808088015161ffff1990921693151561ff0019169390931761010091151582021790915560a09586015160049095019490945582519384018352601160c085018181527074352d636f6c6f6d6269612d657069636f60781b60e0870152855283518085018552600580825264657069636f60d81b60208381019190915280880192909252682f6f10780d22cc000095870195909552600093860184905291850183905294840182905284546001810186559490915282518051939460008051602062002ec283398151915293029290920192620006cb928492019062000d49565b506020828101518051620006e6926001850192019062000d49565b50604082810151600283015560608084015160038401805460808088015161ffff1990921693151561ff0019169390931761010091151582021790915560a09586015160049095019490945582519384018352600f60c085019081526e74362d6d657869636f2d657069636f60881b60e0860152845282518084018452600580825264657069636f60d81b60208381019190915280870192909252682f6f10780d22cc000094860194909452600092850183905290840182905293830181905260118054600181018255915282518051939460008051602062002ec2833981519152929093029190910192620007e0928492019062000d49565b506020828101518051620007fb926001850192019062000d49565b50604082810151600283015560608084015160038401805460808088015161ffff1990921693151561ff0019169390931761010091151582021790915560a09586015160049095019490945582519384018352601060c085019081526f74372d63726f616369612d657069636f60801b60e0860152845282518084018452600580825264657069636f60d81b60208381019190915280870192909252682f6f10780d22cc000094860194909452600092850183905290840182905293830181905260118054600181018255915282518051939460008051602062002ec2833981519152929093029190910192620008f6928492019062000d49565b50602082810151805162000911926001850192019062000d49565b50604082810151600283015560608084015160038401805460808088015161ffff1990921693151561ff0019169390931761010091151582021790915560a09586015160049095019490945582519384018352600b60c085019081526a74382d45552d657069636f60a81b60e0860152845282518084018452600580825264657069636f60d81b60208381019190915280870192909252682f6f10780d22cc000094860194909452600092850183905290840182905293830181905260118054600181018255915282518051939460008051602062002ec283398151915292909302919091019262000a07928492019062000d49565b50602082810151805162000a22926001850192019062000d49565b50604082810151600283015560608084015160038401805460808088015161ffff1990921693151561ff0019169390931761010091151582021790915560a09586015160049095019490945582519384018352601160c085018181527074392d706f72747567616c2d657069636f60781b60e0870152855283518085018552600580825264657069636f60d81b60208381019190915280880192909252682f6f10780d22cc000095870195909552600093860184905291850183905294840182905284546001810186559490915282518051939460008051602062002ec28339815191529302929092019262000b1c928492019062000d49565b50602082810151805162000b37926001850192019062000d49565b50604082810151600283015560608084015160038401805460808088015161ffff1990921693151561ff0019169390931761010091151582021790915560a09586015160049095019490945582519384018352600d60c085019081526c7431302d6573702d657069636f60981b60e0860152845282518084018452600580825264657069636f60d81b60208381019190915280870192909252682f6f10780d22cc000094860194909452600092850183905290840182905293830181905260118054600181018255915282518051939460008051602062002ec283398151915292909302919091019262000c2f928492019062000d49565b50602082810151805162000c4a926001850192019062000d49565b50604082015160028201556060820151600382018054608085015115156101000261ff00199315159390931661ffff199091161791909117905560a09091015160049091015562000e1a565b82805482825590600052602060002090810192821562000cee579160200282015b8281111562000cee57825182546001600160a01b0319166001600160a01b0390911617825560209092019160019091019062000cb7565b5062000cfc92915062000dc6565b5090565b82805482825590600052602060002090810192821562000cee579160200282015b8281111562000cee57825182906001600160481b031690559160200191906001019062000d21565b82805462000d579062000ddd565b90600052602060002090601f01602090048101928262000d7b576000855562000cee565b82601f1062000d9657805160ff191683800117855562000cee565b8280016001018555821562000cee579182015b8281111562000cee57825182559160200191906001019062000da9565b5b8082111562000cfc576000815560010162000dc7565b600181811c9082168062000df257607f821691505b6020821081141562000e1457634e487b7160e01b600052602260045260246000fd5b50919050565b6120988062000e2a6000396000f3fe608060405234801561001057600080fd5b50600436106102325760003560e01c80638929cbc511610130578063c991c474116100b8578063eb5b455a1161007c578063eb5b455a1461052e578063ed8c621014610536578063f2fde38b1461054a578063fc0c546a1461055d578063fe4681961461057057600080fd5b8063c991c474146104cd578063cc360058146104f6578063d28c257414610509578063d47edbaa1461051c578063d60fd9b91461052557600080fd5b80639b5c7be5116100ff5780639b5c7be51461045c578063a70fcdcb1461046f578063b7e7306814610482578063bfb231d214610495578063c76cc6f0146104ba57600080fd5b80638929cbc5146104255780638da5cb5b1461042d57806391eb34e01461044057806396ba53631461044957600080fd5b806351e954f7116101be5780636d3ea6ce116101825780636d3ea6ce146103785780636f7bc9be1461038b57806370a0966b146103f65780637ed9ed59146104095780638792fa471461041c57600080fd5b806351e954f714610309578063571c94d71461031c57806362112f3d1461032f57806363a846f81461034257806369ed1e0a1461036557600080fd5b80632e9928d3116102055780632e9928d31461029d57806336b19cd7146102a557806336ec5fe4146102d05780633bbd391e146102e357806351a4cd73146102f657600080fd5b8063035092d9146102375780630f7a54221461025f5780631140e85b14610274578063238393e414610295575b600080fd5b61024a610245366004611d5e565b610583565b60405190151581526020015b60405180910390f35b61027261026d366004611afd565b6105f7565b005b610287610282366004611d2c565b610639565b604051908152602001610256565b601154610287565b61028761076f565b6006546102b8906001600160a01b031681565b6040516001600160a01b039091168152602001610256565b61024a6102de366004611c8f565b6107de565b6102726102f1366004611e36565b6108e8565b61024a610304366004611d2c565b610913565b61024a610317366004611d8e565b610ae1565b61024a61032a366004611d5e565b610bdd565b61027261033d366004611b96565b610c42565b61024a610350366004611afd565b60016020526000908152604090205460ff1681565b610272610373366004611afd565b610c8e565b6002546102b8906001600160a01b031681565b6103cc610399366004611afd565b600f602052600090815260409020805460018201546002830154600384015460049094015460ff90931693919290919085565b6040805195151586526020860194909452928401919091526060830152608082015260a001610256565b610272610404366004611afd565b610d1c565b610287610417366004611b6a565b610da4565b61028760075481565b610287610dd5565b6000546102b8906001600160a01b031681565b61028760085481565b61024a610457366004611afd565b610f89565b61028761046a366004611d2c565b610fcf565b61027261047d366004611d2c565b610ff0565b61024a610490366004611b1a565b611015565b6104a86104a3366004611d2c565b61132a565b60405161025696959493929190611ed5565b6102b86104c8366004611d2c565b611490565b6102876104db366004611afd565b6001600160a01b031660009081526010602052604090205490565b61024a610504366004611afd565b6114ba565b610272610517366004611c55565b61150e565b61028760095481565b610287600a5481565b61028761154c565b60025461024a90600160a01b900460ff1681565b610272610558366004611afd565b6116ac565b6005546102b8906001600160a01b031681565b61024a61057e366004611d2c565b61173a565b3360009081526001602052604081205460ff1661059f57600080fd5b6001600160a01b0382166000908152600f60205260409020805460ff16806105ca5750806001015484115b156105d457600080fd5b838160010160008282546105e89190611f8d565b90915550600195945050505050565b6000546001600160a01b0316336001600160a01b03161461061757600080fd5b600b80546001600160a01b0319166001600160a01b0392909216919091179055565b600080546001600160a01b0316336001600160a01b03161461065a57600080fd5b600d546040516370a0823160e01b815230600482015283916001600160a01b0316906370a082319060240160206040518083038186803b15801561069d57600080fd5b505afa1580156106b1573d6000803e3d6000fd5b505050506040513d601f19601f820116820180604052508101906106d59190611d45565b10156106e057600080fd5b600d5460005460405163a9059cbb60e01b81526001600160a01b0391821660048201526024810185905291169063a9059cbb90604401602060405180830381600087803b15801561073057600080fd5b505af1158015610744573d6000803e3d6000fd5b505050506040513d601f19601f820116820180604052508101906107689190611c72565b5090919050565b600080546001600160a01b0316336001600160a01b03161461079057600080fd5b6000471161079d57600080fd5b600080546040516001600160a01b03909116914780156108fc02929091818181858888f193505050501580156107d7573d6000803e3d6000fd5b5047905090565b600080546001600160a01b0316336001600160a01b0316146107ff57600080fd5b6040805160c08101825288815260208082018990529181018790528515156060820152841515608082015260a081018490526011805460018101825560009190915281518051929360059092027f31ecc21a745e3968a04e9570e4425bc18fa8019c68028196b546d1669c200c68019261087c92849201906118f3565b50602082810151805161089592600185019201906118f3565b50604082015160028201556060820151600382018054608085015115156101000261ff00199315159390931661ffff199091161791909117905560a0909101516004909101555060019695505050505050565b6000546001600160a01b0316336001600160a01b03161461090857600080fd5b600891909155600955565b600060085482101561092457600080fd5b60095482111561093357600080fd5b336000908152600f60205260409020600a546002820154610953916118d0565b42111561095f57600080fd5b805460ff161561096e57600080fd5b806001015483111561097f57600080fd5b600d546040516370a0823160e01b815230600482015284916001600160a01b0316906370a082319060240160206040518083038186803b1580156109c257600080fd5b505afa1580156109d6573d6000803e3d6000fd5b505050506040513d601f19601f820116820180604052508101906109fa9190611d45565b1015610a0557600080fd5b600d546001600160a01b031663a9059cbb336040516001600160e01b031960e084901b1681526001600160a01b03909116600482015260248101869052604401602060405180830381600087803b158015610a5f57600080fd5b505af1158015610a73573d6000803e3d6000fd5b505050506040513d601f19601f82011682018060405250810190610a979190611c72565b610aa057600080fd5b82816001016000828254610ab49190611f8d565b925050819055508260136000828254610acd9190611f75565b909155505042600290910155506001919050565b600080546001600160a01b0316336001600160a01b031614610b0257600080fd5b6040518060c00160405280888152602001878152602001868152602001851515815260200184151581526020018381525060118981548110610b4657610b46612010565b90600052602060002090600502016000820151816000019080519060200190610b709291906118f3565b506020828101518051610b8992600185019201906118f3565b50604082015160028201556060820151600382018054608085015115156101000261ff00199315159390931661ffff199091161791909117905560a090910151600490910155506001979650505050505050565b3360009081526001602052604081205460ff16610bf957600080fd5b6001600160a01b0382166000908152600f60205260409020805460ff1680610c245750806001015484115b15610c2e57600080fd5b838160010160008282546105e89190611f75565b6000546001600160a01b0316336001600160a01b031614610c6257600080fd5b8151610c75906003906020850190611977565b508051610c899060049060208401906119cc565b505050565b6000546001600160a01b0316336001600160a01b031614610cae57600080fd5b6001600160a01b038116610cc157600080fd5b6040516001600160a01b038216907f71614071b88dee5e0b2ae578a9dd7b2ebbe9ae832ba419dc0242cd065a290b6c90600090a26001600160a01b03166000908152600160208190526040909120805460ff19169091179055565b6000546001600160a01b0316336001600160a01b031614610d3c57600080fd5b6001600160a01b038116610d4f57600080fd5b6040516001600160a01b038216907fa3b62bc36326052d97ea62d63c3d60308ed4c3ea8ac079dd8499f1e9c4f80c0f90600090a26001600160a01b03166000908152600160205260409020805460ff19169055565b60106020528160005260406000208181548110610dc057600080fd5b90600052602060002001600091509150505481565b600080546001600160a01b0316336001600160a01b031614610df657600080fd5b600e546040516370a0823160e01b81523060048201526000916001600160a01b0316906370a082319060240160206040518083038186803b158015610e3a57600080fd5b505afa158015610e4e573d6000803e3d6000fd5b505050506040513d601f19601f82011682018060405250810190610e729190611d45565b11610e7c57600080fd5b600e546040516370a0823160e01b81523060048201526000916001600160a01b0316906370a082319060240160206040518083038186803b158015610ec057600080fd5b505afa158015610ed4573d6000803e3d6000fd5b505050506040513d601f19601f82011682018060405250810190610ef89190611d45565b600e5460005460405163a9059cbb60e01b81526001600160a01b03918216600482015260248101849052929350169063a9059cbb906044015b602060405180830381600087803b158015610f4b57600080fd5b505af1158015610f5f573d6000803e3d6000fd5b505050506040513d601f19601f82011682018060405250810190610f839190611c72565b50905090565b600080546001600160a01b0316336001600160a01b031614610faa57600080fd5b50600e80546001600160a01b0383166001600160a01b03199091161790556001919050565b60048181548110610fdf57600080fd5b600091825260209091200154905081565b6000546001600160a01b0316336001600160a01b03161461101057600080fd5b600a55565b600254600090600160a01b900460ff1661102e57600080fd5b600b54604051633264711d60e21b81526001600160a01b038581166004830152600092169063c991c4749060240160206040518083038186803b15801561107457600080fd5b505afa158015611088573d6000803e3d6000fd5b505050506040513d601f19601f820116820180604052508101906110ac9190611d45565b116110b657600080fd5b6001600160a01b0383166000908152600f6020908152604091829020825160a081018452815460ff1615801582526001830154938201939093526002820154938101939093526003810154606084015260040154608083015261111857600080fd5b600281608001511061112957600080fd5b60005b60035481101561123557600d546001600160a01b03166323b872dd336003848154811061115b5761115b612010565b600091825260209091200154600480546001600160a01b03909216918690811061118757611187612010565b6000918252602090912001546040516001600160e01b031960e086901b1681526001600160a01b0393841660048201529290911660248301526044820152606401602060405180830381600087803b1580156111e257600080fd5b505af11580156111f6573d6000803e3d6000fd5b505050506040513d601f19601f8201168201806040525081019061121a9190611c72565b61122357600080fd5b8061122d81611fdf565b91505061112c565b50600c54604080516318160ddd60e01b815290516001600160a01b03909216916350bb4e7f91879184916318160ddd916004808301926020929190829003018186803b15801561128457600080fd5b505afa158015611298573d6000803e3d6000fd5b505050506040513d601f19601f820116820180604052508101906112bc9190611d45565b866040518463ffffffff1660e01b81526004016112db93929190611ea5565b600060405180830381600087803b1580156112f557600080fd5b505af1158015611309573d6000803e3d6000fd5b505050608082018051915061131d82611fdf565b9052506001949350505050565b6011818154811061133a57600080fd5b906000526020600020906005020160009150905080600001805461135d90611fa4565b80601f016020809104026020016040519081016040528092919081815260200182805461138990611fa4565b80156113d65780601f106113ab576101008083540402835291602001916113d6565b820191906000526020600020905b8154815290600101906020018083116113b957829003601f168201915b5050505050908060010180546113eb90611fa4565b80601f016020809104026020016040519081016040528092919081815260200182805461141790611fa4565b80156114645780601f1061143957610100808354040283529160200191611464565b820191906000526020600020905b81548152906001019060200180831161144757829003601f168201915b505050600284015460038501546004909501549394909360ff8083169450610100909204909116915086565b600381815481106114a057600080fd5b6000918252602090912001546001600160a01b0316905081565b600080546001600160a01b0316336001600160a01b0316146114db57600080fd5b50600e80546001600160a01b0383166001600160a01b031991821681179092556005805490911690911790556001919050565b6000546001600160a01b0316336001600160a01b03161461152e57600080fd5b60028054911515600160a01b0260ff60a01b19909216919091179055565b600080546001600160a01b0316336001600160a01b03161461156d57600080fd5b600d546040516370a0823160e01b81523060048201526000916001600160a01b0316906370a082319060240160206040518083038186803b1580156115b157600080fd5b505afa1580156115c5573d6000803e3d6000fd5b505050506040513d601f19601f820116820180604052508101906115e99190611d45565b116115f357600080fd5b600d546040516370a0823160e01b81523060048201526000916001600160a01b0316906370a082319060240160206040518083038186803b15801561163757600080fd5b505afa15801561164b573d6000803e3d6000fd5b505050506040513d601f19601f8201168201806040525081019061166f9190611d45565b600d5460005460405163a9059cbb60e01b81526001600160a01b03918216600482015260248101849052929350169063a9059cbb90604401610f31565b6000546001600160a01b0316336001600160a01b0316146116cc57600080fd5b6001600160a01b0381166116df57600080fd5b600080546040516001600160a01b03808516939216917f8be0079c531659141344cd1fd0a4f28419497f9722a3daafe3b4186f6b6457e091a3600080546001600160a01b0319166001600160a01b0392909216919091179055565b336000908152600f60205260408120805460ff161561175857600080fd5b600d5483906001600160a01b031663dd62ed3e336040516001600160e01b031960e084901b1681526001600160a01b03909116600482015230602482015260440160206040518083038186803b1580156117b157600080fd5b505afa1580156117c5573d6000803e3d6000fd5b505050506040513d601f19601f820116820180604052508101906117e99190611d45565b10156117f457600080fd5b600d546001600160a01b03166323b872dd336040516001600160e01b031960e084901b1681526001600160a01b03909116600482015230602482015260448101869052606401602060405180830381600087803b15801561185457600080fd5b505af1158015611868573d6000803e3d6000fd5b505050506040513d601f19601f8201168201806040525081019061188c9190611c72565b61189557600080fd5b828160010160008282546118a99190611f75565b9250508190555082601260008282546118c29190611f75565b909155506001949350505050565b6000806118dd8385611f75565b9050838110156118ec57600080fd5b9392505050565b8280546118ff90611fa4565b90600052602060002090601f0160209004810192826119215760008555611967565b82601f1061193a57805160ff1916838001178555611967565b82800160010185558215611967579182015b8281111561196757825182559160200191906001019061194c565b50611973929150611a06565b5090565b828054828255906000526020600020908101928215611967579160200282015b8281111561196757825182546001600160a01b0319166001600160a01b03909116178255602090920191600190910190611997565b828054828255906000526020600020908101928215611967579160200282018281111561196757825182559160200191906001019061194c565b5b808211156119735760008155600101611a07565b600082601f830112611a2c57600080fd5b81356020611a41611a3c83611f51565b611f20565b80838252828201915082860187848660051b8901011115611a6157600080fd5b60005b85811015611a8057813584529284019290840190600101611a64565b5090979650505050505050565b600082601f830112611a9e57600080fd5b813567ffffffffffffffff811115611ab857611ab8612026565b611acb601f8201601f1916602001611f20565b818152846020838601011115611ae057600080fd5b816020850160208301376000918101602001919091529392505050565b600060208284031215611b0f57600080fd5b81356118ec8161203c565b60008060408385031215611b2d57600080fd5b8235611b388161203c565b9150602083013567ffffffffffffffff811115611b5457600080fd5b611b6085828601611a8d565b9150509250929050565b60008060408385031215611b7d57600080fd5b8235611b888161203c565b946020939093013593505050565b60008060408385031215611ba957600080fd5b823567ffffffffffffffff80821115611bc157600080fd5b818501915085601f830112611bd557600080fd5b81356020611be5611a3c83611f51565b8083825282820191508286018a848660051b8901011115611c0557600080fd5b600096505b84871015611c31578035611c1d8161203c565b835260019690960195918301918301611c0a565b5096505086013592505080821115611c4857600080fd5b50611b6085828601611a1b565b600060208284031215611c6757600080fd5b81356118ec81612054565b600060208284031215611c8457600080fd5b81516118ec81612054565b60008060008060008060c08789031215611ca857600080fd5b863567ffffffffffffffff80821115611cc057600080fd5b611ccc8a838b01611a8d565b97506020890135915080821115611ce257600080fd5b50611cef89828a01611a8d565b955050604087013593506060870135611d0781612054565b92506080870135611d1781612054565b8092505060a087013590509295509295509295565b600060208284031215611d3e57600080fd5b5035919050565b600060208284031215611d5757600080fd5b5051919050565b60008060408385031215611d7157600080fd5b823591506020830135611d838161203c565b809150509250929050565b600080600080600080600060e0888a031215611da957600080fd5b87359650602088013567ffffffffffffffff80821115611dc857600080fd5b611dd48b838c01611a8d565b975060408a0135915080821115611dea57600080fd5b50611df78a828b01611a8d565b955050606088013593506080880135611e0f81612054565b925060a0880135611e1f81612054565b8092505060c0880135905092959891949750929550565b60008060408385031215611e4957600080fd5b50508035926020909101359150565b6000815180845260005b81811015611e7e57602081850181015186830182015201611e62565b81811115611e90576000602083870101525b50601f01601f19169290920160200192915050565b60018060a01b0384168152826020820152606060408201526000611ecc6060830184611e58565b95945050505050565b60c081526000611ee860c0830189611e58565b8281036020840152611efa8189611e58565b604084019790975250509215156060840152901515608083015260a09091015292915050565b604051601f8201601f1916810167ffffffffffffffff81118282101715611f4957611f49612026565b604052919050565b600067ffffffffffffffff821115611f6b57611f6b612026565b5060051b60200190565b60008219821115611f8857611f88611ffa565b500190565b600082821015611f9f57611f9f611ffa565b500390565b600181811c90821680611fb857607f821691505b60208210811415611fd957634e487b7160e01b600052602260045260246000fd5b50919050565b6000600019821415611ff357611ff3611ffa565b5060010190565b634e487b7160e01b600052601160045260246000fd5b634e487b7160e01b600052603260045260246000fd5b634e487b7160e01b600052604160045260246000fd5b6001600160a01b038116811461205157600080fd5b50565b801515811461205157600080fdfea264697066735822122012ad5f3760203bf984e8abdb1450ddb1166c43e52dc04e1f9821b9461f2a883d64736f6c6343000807003331ecc21a745e3968a04e9570e4425bc18fa8019c68028196b546d1669c200c68",
    "sourcePath": "c:/Users/STC/Documents/GitHub/Crypto-Soccer-Testnet/contracts/Market 2.0/market-v2.sol",
    "compiler": {
        "name": "solc",
        "version": "0.8.7+commit.e28d00a7"
    },
    "functionHashes": {
        "ChangePrincipalToken(address)": "cc360058",
        "ChangeTokenOTRO(address)": "96ba5363",
        "IDNft(address,uint256)": "7ed9ed59",
        "MAX_CSC()": "d47edbaa",
        "MIN_CSC()": "91eb34e0",
        "PRINT_NFT_CSC(uint256)": "9b5c7be5",
        "TIME_CLAIM()": "d60fd9b9",
        "WALLETS_PRINT_NFT_CSC(uint256)": "c76cc6f0",
        "addItem(string,string,uint256,bool,bool,uint256)": "36ec5fe4",
        "admin(address)": "63a846f8",
        "adminWallet()": "36b19cd7",
        "asignarCoinsTo(uint256,address)": "571c94d7",
        "buyCoins(uint256)": "fe468196",
        "editItem(uint256,string,string,uint256,bool,bool,uint256)": "51e954f7",
        "gastarCoinsfrom(uint256,address)": "035092d9",
        "investors(address)": "6f7bc9be",
        "items(uint256)": "bfb231d2",
        "largoInventario(address)": "c991c474",
        "largoItems()": "238393e4",
        "makeNewAdmin(address)": "69ed1e0a",
        "makeRemoveAdmin(address)": "70a0966b",
        "owner()": "8da5cb5b",
        "printItem(address,string)": "b7e73068",
        "printNfts()": "ed8c6210",
        "redimETH()": "2e9928d3",
        "redimOTRO()": "8929cbc5",
        "redimTokenPrincipal01()": "eb5b455a",
        "redimTokenPrincipal02(uint256)": "1140e85b",
        "sellCoins(uint256)": "51a4cd73",
        "token()": "fc0c546a",
        "tokenTRC721()": "6d3ea6ce",
        "transferOwnership(address)": "f2fde38b",
        "updateMarketV1(address)": "0f7a5422",
        "updateMinMax(uint256,uint256)": "3bbd391e",
        "updatePrintNfts(bool)": "d28c2574",
        "updateTimeClaim(uint256)": "a70fcdcb",
        "updateWalletsPrints(address[],uint256[])": "62112f3d",
        "ventaPublica()": "8792fa47"
    },
    "gasEstimates": {
        "creation": {
            "codeDepositCost": "1668800",
            "executionCost": "infinite",
            "totalCost": "infinite"
        },
        "external": {
            "ChangePrincipalToken(address)": "51082",
            "ChangeTokenOTRO(address)": "26894",
            "IDNft(address,uint256)": "4849",
            "MAX_CSC()": "2406",
            "MIN_CSC()": "2385",
            "PRINT_NFT_CSC(uint256)": "4620",
            "TIME_CLAIM()": "2428",
            "WALLETS_PRINT_NFT_CSC(uint256)": "4747",
            "addItem(string,string,uint256,bool,bool,uint256)": "infinite",
            "admin(address)": "2626",
            "adminWallet()": "2405",
            "asignarCoinsTo(uint256,address)": "31306",
            "buyCoins(uint256)": "infinite",
            "editItem(uint256,string,string,uint256,bool,bool,uint256)": "infinite",
            "gastarCoinsfrom(uint256,address)": "31282",
            "investors(address)": "11139",
            "items(uint256)": "infinite",
            "largoInventario(address)": "2576",
            "largoItems()": "2405",
            "makeNewAdmin(address)": "28110",
            "makeRemoveAdmin(address)": "28047",
            "owner()": "2405",
            "printItem(address,string)": "infinite",
            "printNfts()": "2382",
            "redimETH()": "infinite",
            "redimOTRO()": "infinite",
            "redimTokenPrincipal01()": "infinite",
            "redimTokenPrincipal02(uint256)": "infinite",
            "sellCoins(uint256)": "infinite",
            "token()": "2447",
            "tokenTRC721()": "2382",
            "transferOwnership(address)": "30500",
            "updateMarketV1(address)": "26792",
            "updateMinMax(uint256,uint256)": "46729",
            "updatePrintNfts(bool)": "26796",
            "updateTimeClaim(uint256)": "24549",
            "updateWalletsPrints(address[],uint256[])": "infinite",
            "ventaPublica()": "2428"
        }
    }
}